:020000040800F2
:10000000D007002079020008A31A00086F19000821
:10001000A11A0008EF040008612200080000000097
:10002000000000000000000000000000331B00087A
:10003000F104000800000000A51A0008C71B000812
:10004000930200089302000893020008930200083C
:10005000930200089302000893020008930200082C
:10006000930200089302000893020008930200081C
:10007000930200089302000893020008930200080C
:1000800093020008930200089302000893020008FC
:1000900093020008930200089302000893020008EC
:1000A00093020008930200089302000893020008DC
:1000B00093020008930200089302000893020008CC
:1000C00093020008930200089302000893020008BC
:1000D00093020008930200089302000893020008AC
:1000E000930200089302000893020008930200089C
:1000F000930200089302000893020008930200088C
:10010000930200089302000893020008930200087B
:100110009302000893020008411C000893020008A3
:10012000930200089302000893020008930200085B
:10013000930200089302000893020008930200084B
:10014000930200089302000893020008930200083B
:10015000930200089302000893020008930200082B
:10016000930200089302000893020008930200081B
:10017000930200089302000893020008930200080B
:1001800093020008930200089302000893020008FB
:100190009302000800000000930200089302000888
:1001A00093020008930200089302000893020008DB
:1001B00093020008930200089302000893020008CB
:1001C00093020008930200089302000893020008BB
:1001D000930200089302000800F002F800F03CF8D7
:1001E0000AA090E8000C82448344AAF10107DA4592
:1001F00001D100F031F8AFF2090EBAE80F0013F0A8
:10020000010F18BFFB1A43F0010318472426000012
:1002100044260000103A24BF78C878C1FAD85207A3
:1002200024BF30C830C144BF04680C607047000070
:100230000023002400250026103A28BF78C1FBD8EF
:10024000520728BF30C148BF0B6070471FB502F08E
:10025000B9FA1FBD10B510BD00F014F91146FFF733
:10026000F5FF02F09BFA00F032F903B4FFF7F2FF5A
:1002700003BC00F035F900000948804709480047F1
:10028000FEE7FEE7FEE7FEE7FEE7FEE7FEE7FEE746
:10029000FEE7FEE704480549054A064B70470000A3
:1002A000311C0008D9010008D0010020D00700202F
:1002B000D0030020D003002053EA020C00F0698034
:1002C0002DE9F04B4FF00006002B1FBFB3FA83F56A
:1002D00003FA05F424FA05F65E4012BF1643B2FA9B
:1002E00082F502FA05F4C5F120051EBF22FA05FCCD
:1002F00044EA0C04203556EA044C4FEA144418BF73
:10030000641C4FF000084FF00009904271EB030CA1
:1003100039D3002919BFB1FA81F701FA07F6B0FA0B
:1003200080F700FA07F6C7F120071EBF20FA07FC86
:1003300046EA0C062037B6FBF4FCA7EB0507103F96
:1003400007F01F0BCBF120060CFA0BFB2CFA06F67C
:1003500044BFB3460026202FA4BF5E464FF0000BDB
:100360005BEA060C08BF4FF0010B19EB0B09ABFB66
:10037000027C48EB0608C01B06FB02CC0BFB03CC3F
:1003800071EB0C01C1E70B46024641464846BDE809
:10039000F08B13B54FF000004FF00001AFF3008079
:1003A000BDE81C40704710B5203AC0F00B80B1E8A2
:1003B0001850203AA0E81850B1E81850A0E818509A
:1003C000BFF4F5AF5FEA027C24BFB1E81850A0E8A3
:1003D000185044BF18C918C0BDE810405FEA827CBD
:1003E00024BF51F8043B40F8043B08BF7047D207D4
:1003F00028BF31F8023B48BF11F8012B28BF20F875
:10040000023B48BF00F8012B70474FF0000200B5D7
:10041000134694469646203922BFA0E80C50A0E827
:100420000C50B1F12001BFF4F7AF090728BFA0E8D5
:100430000C5048BF0CC05DF804EB890028BF40F8A1
:10044000042B08BF704748BF20F8022B11F0804FE3
:1004500018BF00F8012B704770477047704710B500
:1004600000F008F8006810BD10B5044600F002F86E
:10047000046010BD004870476C01002000487047C0
:100480006C0100207546FFF7F9FFAE46050069468E
:10049000534620F00700854618B020B5FFF7FAFE56
:1004A000BDE820404FF000064FF000074FF0000875
:1004B0004FF0000B21F00701AC46ACE8C009ACE8F6
:1004C000C009ACE8C009ACE8C0098D46704710B55A
:1004D0000446AFF300802046BDE81040FFF7C5BEDC
:1004E00001491820ABBEFEE7260002007047FEE778
:1004F000704772B6FEE700002DE9F04FDFF80C926E
:10050000002301260325A9F1040B85B00F2709F16B
:10051000040AABF1040EF1E006FA03FC12EA0C0245
:100520007ED00C7904F00304012C01D0022C20D1E0
:10053000846800945C0005FA04F80494009C24EAA2
:1005400008040094D1F80C80049C08FA04F8009C7C
:1005500048EA0408C0F80880446824EA0C0491F8CA
:1005600004C0CCF3001C0CFA03FC4CEA040CC0F8E9
:1005700004C00C79E443A40702D18C68012C0ED08E
:10058000C4684FEA430805FA08FC24EA0C04D1F8D1
:1005900008C00CFA08FC4CEA040CC0F80CC00C793A
:1005A00004F00304022C16D1DC0800EB840CCDF817
:1005B00008C0DCF820C05C074FEAD46807FA08F4EA
:1005C0002CEA040C0C6904FA08F444EA0C04DDF883
:1005D00008C0CCF8204004684FEA430805FA08FC3C
:1005E00024EA0C0491F804C00CF0030C0CFA08FC8B
:1005F0004CEA040CC0F800C04C6814F4403F7CD0B6
:10060000434CD4F860C04CF0010CC4F860C0246EB8
:1006100023F0030C04F0010400943E4C644400E019
:100620006BE00294A4684FEA837C4FEA1C7807FAD7
:1006300008FC24EA0C04B0F1904F06D0DFF8D8C0D3
:10064000604505D14FF0010C20E04FF0000C1DE09B
:10065000DFF8C8C0604502D14FF0020C16E0DFF8A9
:10066000C0C0604502D14FF0030C0FE0DFF8B4C00A
:10067000604502D14FF0040C08E0DFF8ACC06045E3
:1006800002D14FF0050C01E04FF0060C0CFA08FC0B
:100690004CEA040C029CC4F808C0D9F80040CC46CF
:1006A000D1F8048094435FEAC82800D51443CCF8FD
:1006B0000040DAF80040D446D1F8048094435FEA61
:1006C000882800D51443CCF80040DBF80040DC4615
:1006D000D1F8048094435FEA883800D51443CCF8FD
:1006E0000040DEF80040F446D1F8048094435FEA0D
:1006F000C83800D51443CCF800405B1C0C68224677
:10070000DC407FF409AF05B0BDE8F08F080401407C
:1007100000100240000001400004004800080048AA
:10072000000C004800100048001400480AB1816124
:100730007047816270470000014880687047000080
:1007400004000020024881684268114481607047BB
:100750000400002010B50024032000F073F80F20DF
:1007600000F008F808B1012401E000F025F8204667
:1007700010BD000070B50E4E05460024706898B19B
:100780004FF47A71B1FBF0F00A490968B1FBF0F05F
:1007900000F09AFD40B9102D06D200222946501EC5
:1007A00000F030F8356000E00124204670BD000004
:1007B00004000020100000200A4882B0016E41F0C1
:1007C00001010166016E01F001010091816D41F0AE
:1007D00080518165806D00F08050009002B000F083
:1007E000A1B8000000100240002809DB00F01F0241
:1007F000012191404009800000F1E020C0F8001183
:1008000070470000F0B40E4B1B680C46C3F3022384
:10081000C3F10705042D00D90425191D072901D2AC
:10082000002300E0DB1E012606FA05F1491E2140E7
:1008300099409E40761E16403143F0BC01F06FBDDA
:100840000CED00E0064900F0070208684FF6FF03D0
:10085000184040EA0220034A104308607047000035
:100860000CED00E00000FA052B492C4B0A68322100
:100870004A432B4940B1B0F5007F086829D020F4E5
:10088000C06040F480602CE00868C0F3412002287A
:1008900004D051F8800F20F4807022E0D1F880005D
:1008A00020F48070C1F88000086820F4C06040F433
:1008B00000700860B2FBF3F0401C00E0401E4A6983
:1008C000520501D50028F9D1486940050AD5032011
:1008D0007047C0F34120022806D051F8800F40F441
:1008E0008070086000207047D1F8800040F480706C
:1008F000C1F88000086820F4C06040F4007008600F
:10090000B2FBF3F0401C00E0401E4A695205DBD503
:100910000028F9D1D8E700001000002040420F0065
:10092000007000400248816841F480418160704756
:10093000007000402DE9F843044600680026BB4DD6
:1009400000035ED5A86D0027C00008D4A86D40F054
:100950008050A865A86D012700F080500090DFF856
:10096000D092D9F8001041F48071C9F80010FFF757
:10097000E3FE804606E000BFFFF7DEFEA0EB0800C6
:1009800002282BD8D9F80000C005F5D5D5F890007D
:1009900010F4407014D0216D814211D0D5F8900030
:1009A000D5F8901020F4407041F48031C5F89010D3
:1009B000D5F8901021F48031C5F89010C5F890005A
:1009C000C00711D0FFF7B8FE804641F2883907E032
:1009D000FFF7B2FEA0EB0801494501D903260BE061
:1009E000D5F890008007F3D5D5F89000216D20F45C
:1009F00040700843C5F890001FB1A86D20F08050EA
:100A0000A8652078C00707D0D5F88800616820F075
:100A100003000843C5F888002078800707D5D5F87B
:100A20008800A16820F00C000843C5F888002078F1
:100A3000400707D5D5F88800E16820F0300008436A
:100A4000C5F888002078000707D5D5F88800216907
:100A500020F0C0000843C5F888002078C00607D5FC
:100A6000D5F88800616920F440700843C5F8880013
:100A70002078800607D5D5F88800A16920F4406069
:100A80000843C5F888002078400607D5D5F88800C7
:100A9000E16920F440500843C5F88800207800063A
:100AA00007D5D5F88800216A20F440400843C5F8EE
:100AB00088002088C00507D5D5F88800616A20F431
:100AC00040300843C5F888002068800307D5D5F872
:100AD0009C00A16A20F003000843C5F89C00208810
:100AE000800507D5D5F88800E16A20F44020084346
:100AF000C5F88800208840050FD5D5F88800216BFF
:100B000020F440100843C5F88800206BB0F5801F22
:100B100003D1E86840F48010E860208800050FD514
:100B2000D5F88800616B20F440000843C5F88800C0
:100B3000606BB0F5800F03D1E86840F48010E86086
:100B40002088C0040FD5D5F88800A16B20F0407034
:100B50000843C5F88800A06BB0F1807F03D1E86836
:100B600040F48010E86020884FF0006180040ED5CA
:100B7000D5F88800E26B20F040601043C5F888008B
:100B8000E06B884203D1E86840F48010E860208878
:100B900040040ED5D5F88800226C20F04060104348
:100BA000C5F88800206C884203D1E86840F48010C2
:100BB000E860208800040FD5D5F88800616C20F02B
:100BC00040500843C5F88800606CB0F1805F03D1E5
:100BD000E86840F48030E8602068C0030FD5D5F89D
:100BE0008800A16C20F040400843C5F88800A06C44
:100BF000B0F1804F03D1E86840F48030E8602068AD
:100C000040030FD5D5F89C00E16C20F44010084358
:100C1000C5F89C00E06CB0F5001F03D1E86840F413
:100C20008010E8603046BDE8F88300000010024004
:100C3000007000402DE9F0470E4605004FF0000718
:100C400025D0DFF8AC81D8F8000000F00F00B042EA
:100C50000CD2D8F8001021F00F013143C8F8001071
:100C6000D8F8000000F00F00B04210D12968614CA4
:100C7000C80741F2883A5AD06868DFF87C910328A7
:100C800008D0022820682DD0400500282CDB012048
:100C9000BDE8F08720688001F9D5E06800F0030224
:100CA000E068C0F30310401C032A19D0534A00BF68
:100CB000B2FBF0F0E268C2F306225043E268C2F3EE
:100CC0004162521C5200B0FBF2F0484517D9A068AF
:100CD00010F0F00F0CD0880711D5A86840B10EE0D5
:100CE000474AE5E78003D0E700F0B6F8484506D963
:100CF000A06820F0F00040F08000A0608027A0688D
:100D0000696820F003000843A060FFF715FD8146E5
:100D100006E000BFFFF710FDA0EB090151453AD8EE
:100D2000A068696800F00C00B0EB810FF2D1286870
:100D3000810714D5400703D5A06840F4E060A060A7
:100D40002878000705D5A06820F4605040F4E060E2
:100D5000A060A068A96820F0F000084304E0802F9C
:100D600003D1A06820F0F000A060D8F80010404641
:100D700001F00F01B14216D9016821F00F01314392
:100D80000160FFF7D9FC074607E000BFFFF7D4FC7E
:100D9000C11B514501D903207AE7D8F8000000F0C3
:100DA0000F00B042F2D12878400705D5A068E96865
:100DB00020F4E0600843A0602878000706D5A0680A
:100DC000296920F4605040EAC100A06000F044F8B6
:100DD000A1680C4AC1F30311515C01F01F01C84026
:100DE0000949086009480068BDE8F047FFF7C2BC40
:100DF000002002400010024000B4C4040024F400AB
:100E000000127A00F62700081000002004000020DD
:100E10000548064900688968054AC1F30221515C0A
:100E200001F01F01C8407047100000200010024070
:100E3000062800080548064900688968054AC1F384
:100E4000C221515C01F01F01C84070471000002012
:100E50000010024006280008184910B58868C0F341
:100E600081021748012A0BD08A684310C2F381021D
:100E7000022A06D08A68C2F38102032A03D0002026
:100E800010BD184610BDCA6802F00304CA68C2F358
:100E90000312521C032C02D0B0FBF2F001E0B3FBB2
:100EA000F2F0CA68C968C2F306225043C1F3416137
:100EB000491C4900B0FBF1F010BD000000100240D9
:100EC0000024F4002DE9F84304007AD02078F84D8E
:100ED000C00747D0A868E96800F00C0001F00301E2
:100EE0000C2802D0082817D001E0032914D060682C
:100EF000B0F5803F17D0B0F5A02F286817D020F4A8
:100F000080302860286820F4802028606068E0B184
:100F1000FFF712FC064614E02868800322D56068BB
:100F20000028D2D01EE0286840F48030EDE740F47D
:100F300080202860F7E700BFFFF7FEFB801B6428D6
:100F400070D828688003F7D50CE0FFF7F5FB06465C
:100F500005E000BFFFF7F0FB801B6428F0D828688D
:100F60008003F7D4207880074CD5A868E96800F0A2
:100F70000C0001F003010C2802D004280DD001E080
:100F800002290AD0E068002828682BD040F480703D
:100F90002860FFF7D1FB064619E02868400502D516
:100FA000E068002891D06868217C20F0FE4040EA8B
:100FB00001606860BF480068FFF7DCFB002800D1D3
:100FC00020E072E1FFF7B8FB801B0228B8D8286840
:100FD0004005F7D56868217C20F0FE4040EA0160BA
:100FE00068600FE020F480702860FFF7A5FB0646DC
:100FF00005E000BFFFF7A0FB801B0228A0D82868EF
:101000004005F7D42078000729D560690028D5F875
:10101000940013D040F00100C5F89400FFF78CFB5A
:10102000064606E090E000BFFFF786FB801B022823
:1010300086D8D5F894008007F6D510E020F001009E
:10104000C5F89400FFF778FB064604E0FFF774FB51
:10105000801B022878D8D5F894008007F6D4207831
:10106000400761D5A86D0026C00008D4A86D40F0E7
:101070008050A865A86D012600F0805000908E4831
:101080000168C90511D40168804641F4807101608E
:10109000FFF752FB074604E0FFF74EFBC01B022898
:1010A00052D8D8F80000C005F6D5A068012815D0A0
:1010B0000528D5F8900016D020F00100C5F8900062
:1010C000D5F8900020F00400C5F89000A06841F227
:1010D0008838B8B1FFF730FB07460EE0D5F890002E
:1010E00040F00100F0E740F00400C5F89000F5E79B
:1010F000FFF722FBC11B414526D8D5F89000800799
:10110000F6D50CE0FFF718FB074604E0FFF714FBE9
:10111000C11B414518D8D5F890008007F6D41EB100
:10112000A86D20F08050A8652078800629D5A06998
:101130000028D5F8980013D040F00100C5F89800B9
:10114000FFF7FAFA064606E075E000BFFFF7F4FA8B
:10115000801B02286FD8D5F898008007F6D510E0DC
:1011600020F00100C5F89800FFF7E6FA064604E013
:10117000FFF7E2FA801B02285DD8D5F898008007B7
:10118000F6D4E069F0B3A968C1F3810103295DD009
:101190000228286820F08070286003D0FFF7CCFA7E
:1011A00004464BE0FFF7C8FA064604E0FFF7C4FA2E
:1011B000801B02283FD828688001F7D4F4E9080191
:1011C0006FF00F0202EB01110843218A5204490813
:1011D00002EB4151A26841EA02210843217D4FF010
:1011E0007E42490802EB41610843217B40EAC1602D
:1011F000E968324A11400843E860286840F080708E
:10120000286000E05EE0E86840F08070E860FFF78A
:1012100093FA044605E000BFFFF78EFA001B022890
:1012200009D828688001F7D54CE000BFFFF784FAA1
:10123000001B022802D90320BDE8F883286880013A
:10124000F4D4E8681E490840E8603BE00128F3D088
:10125000E868226A00F00301914226D1616A00F039
:10126000F0020901103991421FD1A26A00F4FE4137
:10127000B1EB022F19D194F82C2000F07841B1EB9A
:10128000C26F12D1218E00F4C00249084905A1F5B0
:101290000011914209D194F8341000F0C06049085F
:1012A0004906A1F1007181420CD00120C4E7000081
:1012B0000010024004000020007000400C809F01DC
:1012C000FCFFEEFE0020B7E710B5401EB0F1807FB6
:1012D00001D3012010BD4FF0E02460610F216017A1
:1012E00001F01DF80020A06107202061002010BD42
:1012F000704770477047704770477047F0B590F877
:101300003C20012A43D0012580F83C50022280F87D
:101310003D2003685A689C681E4E1F4FDFF87CC052
:10132000B34203D0BB4201D0634504D122F4700E16
:101330004A6842EA0E02DFF868E002EA0E02D1F8DB
:1013400000E04EEA020EC3F804E00268B24212D096
:10135000B2F1804F0FD0134B9A420CD0124B9A42ED
:1013600009D0124B9A4206D0BA4204D0104B9A428E
:1013700001D0624504D1896824F08003194391604B
:1013800080F83D50002180F83C100846F0BD022056
:10139000F0BD0000002C014000340140005001402D
:1013A0008FFFFFFD0004004000080040000C0040DB
:1013B00000400140704710B5040003D094F83D0090
:1013C00010B107E0012010BD002084F83C00204649
:1013D00000F022F8022084F83D00211D206800F072
:1013E00035FC012084F8480084F83E0084F83F0072
:1013F00084F8400084F8410084F8420084F84300F7
:1014000084F8440084F8450084F8460084F84700D6
:1014100084F83D00002010BD08B500680B498842E3
:1014200012D10B48816D41F010018165806D002261
:1014300000F01000009011463620FFF7E3F9BDE8F8
:1014400008403620FFF7D0B908BD0000001000406A
:101450000010024090F83D10012901D00120704792
:10146000022180F83D100168CA6842F00102CA609A
:1014700000681349884214D0B0F1804F11D011494F
:1014800088420ED0104988420BD01049884208D0BB
:101490000F49884205D00F49884202D00E49884240
:1014A00007D181680D4A1140062906D0B1F5803F69
:1014B00003D0016841F00101016000207047000085
:1014C000002C01400004004000080040000C0040D7
:1014D000003401400040014000500140070001007D
:1014E00070472DE9F04104460068C66805694FF071
:1014F0000007A90713D5B10711D5F91E0161012015
:101500002077206880698007204602D0FFF7E8FF37
:1015100004E000F0B7F8204600F0B5F82777680738
:1015200016D5700714D521686FF0040008610220F9
:1015300020772068806910F4407F204602D0FFF7B2
:10154000CFFF04E000F09EF8204600F09CF82777DB
:10155000280715D5300713D521686FF008000861FA
:10156000042020772068C0698007204602D0FFF75A
:10157000B7FF04E000F086F8204600F084F82777F3
:10158000E80616D5F00614D521686FF01000086142
:10159000082020772068C06910F4407F204602D0E0
:1015A000FFF79EFF04E000F06DF8204600F06BF8B6
:1015B0002777E80708D0F00706D021686FF0010010
:1015C0000861204600F060F8280601D4A80408D578
:1015D000300606D521686FF4025008612046FFF7F7
:1015E00088FEE80508D5300606D521686FF48070BE
:1015F00008612046FFF77CFE680608D5700606D510
:1016000021686FF040000861204600F073F8A806DA
:1016100008D5B00606D521686FF020000861204685
:10162000FFF768FEE80208D5F00206D521686FF4DE
:10163000801008612046FFF75FFEA80208D5B002BF
:1016400006D521686FF4001008612046FFF753FEAD
:10165000680208D5700206D521686FF48000086121
:101660002046FFF74AFE28020AD5300208D5216835
:101670006FF4000008612046BDE8F041FFF79ABE14
:10168000BDE8F08170477047144810B590ED000A2E
:10169000DFED130A134A30EE200A10EE101A80ED27
:1016A000000A914205DBDFED100A30EE600A80EDA2
:1016B000000A0E4880ED020A9FED0D0A80ED000A37
:1016C000B7EE000A80ED010A00F008FA074800F0C2
:1016D000EBF9BDE81040054800F02CBA00000020EE
:1016E0000AD7233CDB0FC940DB0FC9404001002073
:1016F00000000000704790F88410012918D00121E3
:1017000080F884102421C0F8881001680A680B68EA
:1017100023F001030B6022F00051002242660368AF
:1017200019602021C0F8881080F884201046704786
:101730000220704770B5044690F8840001281DD03F
:10174000012084F884002420C4F8880020680568FB
:10175000026822F0010202602068826822F0606262
:101760000A438260204600F0DFFA206805602020EE
:10177000C4F88800002084F8840070BD022070BD89
:1017800070B5044690F8840001281DD0012084F82B
:1017900084002420C4F8880020680568026822F0CC
:1017A000010202602068826822F060420A4382607F
:1017B000204600F0B9FA206805602020C4F88800AF
:1017C000002084F8840070BD022070BD10B50400B4
:1017D00003D0D4F8880010B107E0012010BD00202C
:1017E00084F88400204600F027F82420C4F88800FC
:1017F0002068016821F001010160A06A10B1204653
:1018000000F0B4FA204600F095FB0128E6D02068ED
:10181000416821F4904141602068816821F02A01EB
:1018200081602068016841F0010101602046BDE847
:10183000104000F0FFBA000010B59CB0044614211F
:1018400015A8FEF7E2FD54216846FEF7DEFD1749B4
:101850002068884227D10420002400900394684621
:10186000FFF768F808B1FEF744FE1148816D41F4B6
:1018700080218165816D01F480211A91C16C41F054
:101880000201C164C06C15A900F002001A904FF467
:10189000406015900220CDE916040720CDE91840DC
:1018A0000448FEF729FE1CB010BD000000480040AF
:1018B00000100240000400482DE9F84F0446D0F81B
:1018C0008800984615460E46202802D00220BDE822
:1018D000F88F96B38DB30020C4F890004FF0210923
:1018E000C4F888901834FEF727FFA5878246E5875D
:1018F00054F8100C183CB0F5805F01D1206910B18C
:101900003546002600E000255FF02007B4F85600B9
:1019100053464FF00002CDF80080D8B18021204618
:1019200000F054FCD8B955B115F8010B2168886254
:10193000D4F8881039EA010006D00120C7E736F84C
:10194000020BC0F30800F1E7B4F85600401EA4F8FB
:101950005600DBE74021204600F038FC18B1C4F8FF
:1019600088700320B3E7C4F888700020AFE7FEE773
:1019700030B587B014216846FEF747FD1A48C16CA0
:1019800041F00401C164C16C01F004010591C16C16
:1019900041F02001C164C16C01F020010591C16CCE
:1019A00041F00201C164C16C01F002010591C16CFA
:1019B00041F00101C164C06C0C4D00F001004FF416
:1019C00000540590002221462846FEF7AFFE012074
:1019D00000210094CDE90101039169462846FEF7F4
:1019E0008BFD07B030BD0000001002400008004829
:1019F0003EB500240F48009401940D490294016003
:101A0000A921C0E9011440F2E7318461C160FFF708
:101A1000D2FC08B1FEF76DFD0094694605480294BA
:101A2000FFF76CFC002801D0FEF763FD3EBD00000F
:101A30000010004014000020184810B5164901603D
:101A40004FF4E1314160002181600C22C160C0E9A6
:101A500004128161C161016241628162FFF7B6FED9
:101A600008B1FEF746FD00210C48FFF789FE08B1DA
:101A7000FEF73FFD00210948FFF75CFE08B1FEF7C5
:101A800038FD0648FFF737FE002803D0BDE81040B8
:101A9000FEF72FBD10BD0000004800406000002090
:101AA000FEE7FEE77047000090ED030AFEEE000A35
:101AB00080ED050A20EE200A90ED041ADFED060AFB
:101AC000F0EE401A01EE600A41EE201AC0ED061A4F
:101AD00080ED070A70470000D7B35D3F10B504469C
:101AE0002DED028B90ED020A00F02AFCD4ED000AE5
:101AF00020EE208A94ED020A00F0CAFCD4ED010A1F
:101B000000EEC08A84ED038A94ED020A00F0C0FC66
:101B1000D4ED000A20EE208A94ED020A00F010FCB9
:101B2000D4ED010A00EE808A84ED048ABDEC028BBC
:101B300010BD704790ED051AD0ED060A90ED070A2A
:101B4000B4EEE01AF1EE10FA07DDB4EEC01AF1EED1
:101B500010FA0ADDF0EE411A09E0F4EEC00AF1EEE7
:101B600010FA02DDF0EE601A01E0F0EE401AB4EE79
:101B7000E01AB0EE612AF1EE10FA07D2B4EEC01A04
:101B8000F1EE10FA0AD2F0EE411A09E0F4EEC00AC2
:101B9000F1EE10FA02D2F0EE601A01E0F0EE401A17
:101BA00072EE211ABEEE002A61EE821A31EE211A7F
:101BB00070EEA10A30EE210A80ED081AC0ED090A84
:101BC00080ED0A0A7047FEF7BDBD10B594B038210C
:101BD0006846FEF71AFC14210EA8FEF716FC00203A
:101BE000FEF742FE01200090000401900220032431
:101BF000CDE907045521CDE909010B900C900D901A
:101C00006846FFF75FF908B172B6FEE70F20CDE92D
:101C10000E04002010901190129004210EA8FFF7DE
:101C200009F8002801D072B6FEE714B010BD00001C
:101C30000248016841F470010160704788ED00E0DE
:101C40000148FFF74EBC0000140000202DE9F04FC2
:101C500002682C4B2C4E2D4FDFF8B4C02D4C2E4D6E
:101C60004FF0804B98420BD0584509D0B04207D076
:101C7000B84205D0604503D0A04201D0A84204D1AB
:101C800022F070084A6842EA0802DFF89080DFF824
:101C90009090DFF890A0984211D058450FD0B042F4
:101CA0000DD0B8420BD0604509D0A04207D04045C6
:101CB00005D0484503D0504501D0A84203D122F4B5
:101CC0004076CA6832434E6922F0800232438E6801
:101CD000C6620E688662984209D0A04207D040458D
:101CE00005D0484503D0504501D0A84201D109692B
:101CF0000163016841F0040101600121416102605A
:101D0000BDE8F08F002C01400004004000080040B6
:101D1000000C0040003401400050014000400140F0
:101D2000004401400048014030B5416EB9B102683D
:101D300091689268C1F342610B4B520F9C5CE500C5
:101D400003F10804A25CB5FBF2F2A0F86A205A5C29
:101D5000615CD200B2FBF1F1A0F8681030BD012146
:101D6000A0F86A10F8E70000E627000890F82810AD
:101D7000090706D501684A68836B22F400421A43BA
:101D80004A6090F82810C90706D001684A68C36AFB
:101D900022F400321A434A6090F82810890706D5C9
:101DA00001684A68036B22F480321A434A6090F853
:101DB0002810490706D501684A68436B22F480223F
:101DC0001A434A6090F82810C90606D501688A6847
:101DD000C36B22F480521A438A6090F82810890657
:101DE00006D501688A68036C22F400521A438A609F
:101DF00090F82810490611D501684A68436C22F40E
:101E000080121A434A60416CB1F5801F06D1016807
:101E10004A68836C22F4C0021A434A6090F8281082
:101E2000090606D501684A68C06C22F40022024304
:101E30004A6070472DE9F84300260446C0F89060D8
:101E4000FEF77AFC8046206800684FF02005000706
:101E50006FF07E4713D543460022290420460097A1
:101E600000F0B4F958B1216851E8000F20F080006B
:101E700041E80002002AF6D1C4F8885021E0206829
:101E80000068400722D5434600224FF480012046D7
:101E9000009700F09BF9C8B1216851E8000F20F4C9
:101EA000907041E80002002AF6D12068083050E81E
:101EB000001F21F0010140E80012002AF5D1C4F80A
:101EC0008C5084F884600320BDE8F883C4F88850FF
:101ED000C4F88C5044F86C6F666026760020F3E7F7
:101EE00010B5026852E8001F21F4907142E8001317
:101EF000002BF6D10E4B0268083252E8001F194041
:101F000042E80014002CF6D1C16E012908D1016805
:101F100051E8002F22F0100241E80023002BF6D1F7
:101F20002021C0F88C100021C166416710BD00005F
:101F3000FEFFFFEF2DE9F041044601688068226949
:101F4000E3691043626900251A431043DFF84CC26D
:101F50000A68934B1A4002430A6020684168E268AD
:101F600021F44051114341602168A069614501D0CD
:101F7000226A10438A688B4B1A4002438A602068A9
:101F8000C16A626A21F00F011143C1628649236868
:101F900086488B420DD1D0F8880010F0030006D09F
:101FA000012867D0022854D0032851D164E00120D1
:101FB0004FE07F498B420BD1D0F8880010F00C0025
:101FC00047D0042845D0082852D00C2840D153E0EF
:101FD00078498B420BD1D0F8880010F0300038D00F
:101FE000102847D0202843D0302831D144E072490E
:101FF0008B420BD1D0F8880010F0C00029D04028C7
:1020000038D0802834D0C02822D135E06B498B42AB
:102010000ED1D0F8880010F440701AD0B0F5807F4F
:1020200028D0B0F5007F23D0B0F5407F10D123E059
:1020300063450DD1D0F8880010F4406009D0B0F5A8
:10204000806F17D0B0F5006F12D0B0F5406F13D08D
:1020500010205B4A5B4F00264FF40041634539D1A5
:1020600060B102280DD004280DD0082831D10EE02F
:102070000220EEE70420ECE70820EAE7FEF7C8FEBE
:1020800003E0114603E0FEF7E7FE01007BD0606A43
:1020900037F810206768B1FBF2F007EB4703834283
:1020A00069D8B0EB073F66D8002308461946FEF70B
:1020B00003F9090241EA106102027808101871411F
:1020C0003A460023FEF7F8F83F4AA0F540719142E6
:1020D00057D950E0E3694FF6EF788B422BD10928AE
:1020E00049D2DFE800F005080D48254848480E00B1
:1020F000FEF78EFE01E0FEF79DFE010001D142E0F9
:102100001146606A37F81000B1FBF0F041006068DA
:1021100001EB5001B1FBF0F1A1F1100040452AD8CC
:102120004FF6F07201EA0200C1F34201084328E0D1
:10213000FEF792FEE1E709281DD2DFE800F005086E
:102140000D1C1E1C1C1C0E00FEF762FE01E0FEF7BB
:1021500071FE010001D116E01146606A37F81000E7
:10216000B1FBF0F1606801EB5001B1FBF0F0A0F1C0
:102170001001414504D9012505E0FEF76DFEE8E7B1
:1021800080B22168C8600120A4F86A0024F8680FB2
:102190002846E6602661BDE8F0810000008000402E
:1021A000F369FFCFFFF4FF11003801400010024037
:1021B0000044004000480040004C004000500040F7
:1021C0000024F400CE270008FFFC0F002DE9F047A3
:1021D000994617460D4604464FF00008089E33E026
:1021E000701C31D0FEF7A8FAA0EB0900B04218D855
:1021F000BEB120680168490726D5802D24D0402D26
:1022000022D0C169C94309070DD4082505622046BB
:10221000FFF766FEC4F8905084F884800120BDE882
:10222000F0870320FBE7C069C04300050CD4216898
:102230004FF4006008622046FFF752FE2020C4F8E9
:10224000900084F88480ECE72068C06935EA0000DB
:1022500004D00020B842C3D00020E0E70120F9E715
:10226000FEE700000C4910B501F1240024220446C9
:10227000FEF799F8084A0020214602F8480F4FF06F
:10228000FF335070802090707F20D070BDE81040E8
:1022900028220248FFF710BBF40000206000002055
:1022A0001348144990ED020A81ED000A90ED030AEB
:1022B00081ED010A90ED040A81ED020A90ED050A14
:1022C00081ED030A90ED060A81ED040A90ED070AFC
:1022D00081ED050A90ED080A81ED060A90ED090AE4
:1022E00081ED070A90ED0A0A81ED080AFFF7BABFEF
:1022F00040010020F40000204100080218BF042023
:102300000A0E18BF40F001004FF07F4232EA01018F
:1023100008BF40F00200012808BF052070470907E8
:10232000090E002804DB00F1E02080F8001470475B
:1023300000F00F0000F1E02080F8141D704700004D
:1023400010EE101A08B5444A6846B2EB410F28D97E
:102350004FF0E640B0EB410F94BF00204FF0FF304C
:1023600000900098002861DB60EE000A10F0010F79
:1023700045D010F0020FDFED391A9FED391A00EE4B
:10238000E11ADFED381A40EE811A21EEA01AF0EEC4
:10239000400A40EE010A08BFF1EE600AB0EE600AA2
:1023A00008BD314B21F0004293423CD911F0004F5F
:1023B000DFED2E0A20EE201ADFED2D0A19BF31EED7
:1023C000601A71EE200A31EE201A71EE600ABDEE3D
:1023D000E01A11EE100A9FED271A00F0030000EE3C
:1023E000C10A9FED251A009000EEC10A9FED231A45
:1023F00000EEC10A9FED221A00EEC10AB1E79FED7F
:10240000211A9FED210A10F0020F00EE810A9FEDC4
:102410001F1A00EE801AB7EE000A00EE810A18BFFC
:10242000B1EE400A08BD00F00FF99AE710EE100A6D
:102430004000B0F17F4F3CBFB7EE000A08BD07D1A6
:102440004FF00100FEF710F8BDE8084000F0ECB8CE
:10245000BDE8084000F0E4B8B61F927E336D4C39F9
:10246000DA82083CA0AA2ABE490E494683F9223FD7
:102470000000004B0000C93F00A0FD390020A2333E
:102480001A61342CB93AB2BACA9F2A3DDDFFFFBEA9
:1024900000B510EE101A2DED028B81B0524A68463D
:1024A000B2EB410F2ED94FF0E640B0EB410F94BF95
:1024B00000204FF0FF3000900098B0EE408A0028D6
:1024C0006ADB10F0010F4BD068EE080A9FED471A47
:1024D0009FED470A00EE810A9FED461A10F0020FA9
:1024E00000EE801AB7EE000A00EE810A02BF01B0CA
:1024F000BDEC028B00BD00BF01B0B1EE400ABDECE7
:10250000028B00BD3C4B21F00042934241D911F0B7
:10251000004FDFED3A0A20EE201ADFED390A19BF2D
:1025200031EE601A71EE200A31EE201A71EE600A67
:10253000BDEEE01A11EE100A9FED321A00F0030012
:1025400000EEC10A9FED301A009000EEC10A9FED27
:102550002F1A00EEC10A9FED2E1A00EEC10AABE75A
:1025600028EE080A9FED2B1ADFED2B0A10F0020F60
:1025700040EE410A9FED291A00EE201A61EE000A92
:10258000B0EE480A08EE200AB6D101B0BDEC028BCD
:1025900000BD00F059F88FE718EE100A4000B0F1C6
:1025A0007F4F0DD218EE100AFFF7A6FE042808BFD1
:1025B00000F042F8B0EE480A01B0BDEC028B00BD5D
:1025C00009D10120FDF750FF01B0BDEC028B5DF891
:1025D00004EB00F029B801B0B0EE480ABDEC028B64
:1025E0005DF804EB00F01CB8B61F927EB93AB2BA9F
:1025F000CA9F2A3DDDFFFFBE490E494683F9223FAF
:102600000000004B0000C93F00A0FD390020A233AC
:102610001A61342C336D4C39DA82083CA0AA2ABEE8
:1026200030EE000A70470000DFED020A80EEA00ADB
:1026300070470000000000009FED020A20EE000A33
:1026400070470000000000102DE9F0014FF07F42BC
:10265000B2EB410F9FBF4FF0FF310160BDE8F001C9
:1026600070474FF0004242EA0123C1F3C752783A63
:10267000551112F01F0C434CCCF120067C44C1F3E1
:10268000C752A2F178024FEA621204EB820254F8B8
:10269000254008BFD2E9015612D0556804FA0CF45F
:1026A00025FA06F73C43976805FA0CF527FA06F871
:1026B000D26807FA0CFCF24045EA08054CEA02062B
:1026C000A4FB034CA5FB0352A6FB03631D449D42E0
:1026D00034BF012600261319334416B1934202D9A0
:1026E00003E0934201D2012200E00022624402F1A1
:1026F000200C9206DC0C42EA443200EE102A5B0306
:10270000DFED210AF8EEC01A00EE103A4FEA9C1CE9
:1027100011F0004FB8EE400AC0F800C020EE201AB9
:1027200000EE105ADFED190AB8EE400A20EE200A3A
:1027300071EE810A70EE800A10EE902A02F50062B6
:102740006FF30B0200EE902A70EEE11A31EEC11A1F
:10275000DFED101A30EE411A9FED0D0A20EE800ACF
:1027600001EE210A9FED0C1A00EE810A04BFBDE8BC
:10277000F0017047CCF180510160BDE8F001B1EE8D
:10278000400A704790010000000000360000802CD5
:1027900022AAFD29DB0FC92F0000C92FFDF7DAFFA0
:1027A000FFF713FAFFF7E4F8FFF746F9FFF720F910
:1027B0000348FEF74FFE00BFFFF772FDFCE7000085
:1027C000140000204FF04070E1EE100A7047010045
:1027D00002000400060008000A000C00100020009F
:1027E000400080000001010101030701000008040E
:1027F00002040801010100000000000000000102C5
:102800000304060708090000000001020304000099
:10281000000000006E83F9A22915444ED15727FC11
:10282000C0DD34F5999562DB4190433CAB6351FECA
:1028300050280008000000201400000014020008C6
:102840006428000814000020BC07000030020008C3
:102850000000000010000000010000000000000067
:042860000024F4005C
:04000005080001D915
:00000001FF
