:020000040800F2
:10000000800800207902000889240008E720000801
:1000100081230008EF040008A93200080000000056
:10002000000000000000000000000000FD260008A5
:10003000F1040008000000008B2400083B280008A1
:10004000930200089302000893020008930200083C
:10005000930200089302000893020008930200082C
:10006000930200089302000893020008930200081C
:10007000930200089302000893020008930200080C
:1000800093020008930200089302000893020008FC
:1000900093020008930200089302000893020008EC
:1000A000930200089302000893020008B528000894
:1000B00093020008930200089302000893020008CC
:1000C00093020008930200089302000893020008BC
:1000D00093020008930200089302000893020008AC
:1000E000930200089302000893020008930200089C
:1000F000930200089302000893020008930200088C
:10010000930200089302000893020008930200087B
:10011000930200089302000893020008930200086B
:10012000930200089302000893020008930200085B
:10013000930200089302000893020008930200084B
:10014000930200089302000893020008930200083B
:10015000930200089302000893020008930200082B
:10016000930200089302000893020008930200081B
:10017000930200089302000893020008930200080B
:1001800093020008930200089302000893020008FB
:100190009302000800000000930200089302000888
:1001A00093020008930200089302000893020008DB
:1001B00093020008930200089302000893020008CB
:1001C00093020008930200089302000893020008BB
:1001D000930200089302000800F002F800F03CF8D7
:1001E0000AA090E8000C82448344AAF10107DA4592
:1001F00001D100F031F8AFF2090EBAE80F0013F0A8
:10020000010F18BFFB1A43F00103184770430000A9
:1002100090430000103A24BF78C878C1FAD852073A
:1002200024BF30C830C144BF04680C607047000070
:100230000023002400250026103A28BF78C1FBD8EF
:10024000520728BF30C148BF0B6070471FB504F08C
:100250005AF91FBD10B510BD00F014F91146FFF793
:10026000F5FF03F0CBFB00F032F903B4FFF7F2FF28
:1002700003BC00F035F900000948804709480047F1
:10028000FEE7FEE7FEE7FEE7FEE7FEE7FEE7FEE746
:10029000FEE7FEE704480549054A064B70470000A3
:1002A000A5280008D901000880020020800800204D
:1002B000800400208004002053EA020C00F06980D2
:1002C0002DE9F04B4FF00006002B1FBFB3FA83F56A
:1002D00003FA05F424FA05F65E4012BF1643B2FA9B
:1002E00082F502FA05F4C5F120051EBF22FA05FCCD
:1002F00044EA0C04203556EA044C4FEA144418BF73
:10030000641C4FF000084FF00009904271EB030CA1
:1003100039D3002919BFB1FA81F701FA07F6B0FA0B
:1003200080F700FA07F6C7F120071EBF20FA07FC86
:1003300046EA0C062037B6FBF4FCA7EB0507103F96
:1003400007F01F0BCBF120060CFA0BFB2CFA06F67C
:1003500044BFB3460026202FA4BF5E464FF0000BDB
:100360005BEA060C08BF4FF0010B19EB0B09ABFB66
:10037000027C48EB0608C01B06FB02CC0BFB03CC3F
:1003800071EB0C01C1E70B46024641464846BDE809
:10039000F08B13B54FF000004FF00001AFF3008079
:1003A000BDE81C40704710B5203AC0F00B80B1E8A2
:1003B0001850203AA0E81850B1E81850A0E818509A
:1003C000BFF4F5AF5FEA027C24BFB1E81850A0E8A3
:1003D000185044BF18C918C0BDE810405FEA827CBD
:1003E00024BF51F8043B40F8043B08BF7047D207D4
:1003F00028BF31F8023B48BF11F8012B28BF20F875
:10040000023B48BF00F8012B70474FF0000200B5D7
:10041000134694469646203922BFA0E80C50A0E827
:100420000C50B1F12001BFF4F7AF090728BFA0E8D5
:100430000C5048BF0CC05DF804EB890028BF40F8A1
:10044000042B08BF704748BF20F8022B11F0804FE3
:1004500018BF00F8012B704770477047704710B500
:1004600000F008F8006810BD10B5044600F002F86E
:10047000046010BD004870471C020020004870470F
:100480001C0200207546FFF7F9FFAE4605006946DD
:10049000534620F00700854618B020B5FFF7FAFE56
:1004A000BDE820404FF000064FF000074FF0000875
:1004B0004FF0000B21F00701AC46ACE8C009ACE8F6
:1004C000C009ACE8C009ACE8C0098D46704710B55A
:1004D0000446AFF300802046BDE81040FFF7C5BEDC
:1004E00001491820ABBEFEE7260002007047FEE778
:1004F00070470160027170470379026803B1511AB5
:1005000000EE101A8160F8EE400A00EE102AB8EEF4
:10051000401A80EE810ADFED030A20EE200A80ED0A
:10052000030A7047DB0FC94072B6FEE710B50446F8
:1005300001F0C6FF204601F0A9FF2046BDE81040AB
:1005400002F0DEB82DE9F04FDFF80C92002301260F
:100550000325A9F1040B85B00F2709F1040AABF1BB
:10056000040EF1E006FA03FC12EA0C027ED00C79CC
:1005700004F00304012C01D0022C20D184680094E3
:100580005C0005FA04F80494009C24EA0804009432
:10059000D1F80C80049C08FA04F8009C48EA04088E
:1005A000C0F80880446824EA0C0491F804C0CCF335
:1005B000001C0CFA03FC4CEA040CC0F804C00C79D3
:1005C000E443A40702D18C68012C0ED0C4684FEA22
:1005D000430805FA08FC24EA0C04D1F808C00CFA18
:1005E00008FC4CEA040CC0F80CC00C7904F00304BD
:1005F000022C16D1DC0800EB840CCDF808C0DCF826
:1006000020C05C074FEAD46807FA08F42CEA040C0F
:100610000C6904FA08F444EA0C04DDF808C0CCF8CC
:10062000204004684FEA430805FA08FC24EA0C0459
:1006300091F804C00CF0030C0CFA08FC4CEA040C12
:10064000C0F800C04C6814F4403F7CD0434CD4F850
:1006500060C04CF0010CC4F860C0246E23F0030CA1
:1006600004F0010400943E4C644400E06BE002940A
:10067000A4684FEA837C4FEA1C7807FA08FC24EA56
:100680000C04B0F1904F06D0DFF8D8C0604505D11A
:100690004FF0010C20E04FF0000C1DE0DFF8C8C067
:1006A000604502D14FF0020C16E0DFF8C0C0604593
:1006B00002D14FF0030C0FE0DFF8B4C0604502D167
:1006C0004FF0040C08E0DFF8ACC0604502D14FF0F9
:1006D000050C01E04FF0060C0CFA08FC4CEA040C87
:1006E000029CC4F808C0D9F80040CC46D1F8048078
:1006F00094435FEAC82800D51443CCF80040DAF8E8
:100700000040D446D1F8048094435FEA882800D59D
:100710001443CCF80040DBF80040DC46D1F80480FC
:1007200094435FEA883800D51443CCF80040DEF8E3
:100730000040F446D1F8048094435FEAC83800D5FD
:100740001443CCF800405B1C0C682246DC407FF46C
:1007500009AF05B0BDE8F08F080401400010024069
:10076000000001400004004800080048000C004858
:1007700000100048001400480AB18161704781628E
:1007800070470000014880687047000000000020AA
:10079000024881684268114481607047000000206F
:1007A00010B50024032000F073F80F2000F008F8C3
:1007B00008B1012401E000F025F8204610BD00003A
:1007C00070B50E4E05460024706898B14FF47A71EA
:1007D000B1FBF0F00A490968B1FBF0F000F07BFFD3
:1007E00040B9102D06D200222946501E00F030F8E4
:1007F000356000E00124204670BD000000000020AC
:100800000C0000200A4882B0016E41F0010101662F
:10081000016E01F001010091816D41F0805181650F
:10082000806D00F08050009002B000F0A1B8000090
:1008300000100240002809DB00F01F020121914056
:100840004009800000F1E020C0F80011704700006E
:10085000F0B40E4B1B680C46C3F30223C3F107052B
:10086000042D00D90425191D072901D2002300E019
:10087000DB1E012606FA05F1491E214099409E40E3
:10088000761E16403143F0BC02F0E7BD0CED00E0EF
:10089000064900F0070208684FF6FF03184040EAD7
:1008A0000220034A10430860704700000CED00E08E
:1008B0000000FA052B492C4B0A6832214A432B4988
:1008C00040B1B0F5007F086829D020F4C06040F442
:1008D00080602CE00868C0F34120022804D051F861
:1008E000800F20F4807022E0D1F8800020F4807026
:1008F000C1F88000086820F4C06040F4007008600F
:10090000B2FBF3F0401C00E0401E4A69520501D5DD
:100910000028F9D1486940050AD503207047C0F383
:100920004120022806D051F8800F40F48070086002
:1009300000207047D1F8800040F48070C1F880003A
:10094000086820F4C06040F400700860B2FBF3F067
:10095000401C00E0401E4A695205DBD50028F9D151
:10096000D8E700000C00002040420F00007000405B
:100970000248816841F48041816070470070004006
:100980002DE9F843044600680026BB4D00035ED500
:10099000A86D0027C00008D4A86D40F08050A8655D
:1009A000A86D012700F080500090DFF8D092D9F8B0
:1009B000001041F48071C9F80010FFF7E3FE804693
:1009C00006E000BFFFF7DEFEA0EB080002282BD8F0
:1009D000D9F80000C005F5D5D5F8900010F44070A6
:1009E00014D0216D814211D0D5F89000D5F8901027
:1009F00020F4407041F48031C5F89010D5F8901083
:100A000021F48031C5F89010C5F89000C00711D0CE
:100A1000FFF7B8FE804641F2883907E0FFF7B2FEE3
:100A2000A0EB0801494501D903260BE0D5F8900059
:100A30008007F3D5D5F89000216D20F4407008436D
:100A4000C5F890001FB1A86D20F08050A8652078EF
:100A5000C00707D0D5F88800616820F0030008437C
:100A6000C5F888002078800707D5D5F88800A168E8
:100A700020F00C000843C5F888002078400707D50F
:100A8000D5F88800E16820F030000843C5F88800F8
:100A90002078000707D5D5F88800216920F0C0002C
:100AA0000843C5F888002078C00607D5D5F8880027
:100AB000616920F440700843C5F8880020788006FA
:100AC00007D5D5F88800A16920F440600843C5F82F
:100AD00088002078400607D5D5F88800E16920F421
:100AE00040500843C5F888002078000607D5D5F89F
:100AF0008800216A20F440400843C5F88800208817
:100B0000C00507D5D5F88800616A20F44030084355
:100B1000C5F888002068800307D5D5F89C00A16A35
:100B200020F003000843C5F89C002088800507D505
:100B3000D5F88800E16A20F440200843C5F8880011
:100B4000208840050FD5D5F88800216B20F440108F
:100B50000843C5F88800206BB0F5801F03D1E86812
:100B600040F48010E860208800050FD5D5F8880093
:100B7000616B20F440000843C5F88800606BB0F555
:100B8000800F03D1E86840F48010E8602088C0043A
:100B90000FD5D5F88800A16B20F040700843C5F848
:100BA0008800A06BB0F1807F03D1E86840F480102A
:100BB000E86020884FF0006180040ED5D5F88800E9
:100BC000E26B20F040601043C5F88800E06B88427B
:100BD00003D1E86840F48010E860208840040ED516
:100BE000D5F88800226C20F040601043C5F88800DA
:100BF000206C884203D1E86840F48010E8602088C7
:100C000000040FD5D5F88800616C20F040500843EF
:100C1000C5F88800606CB0F1805F03D1E86840F4EB
:100C20008030E8602068C0030FD5D5F88800A16C3B
:100C300020F040400843C5F88800A06CB0F1804F18
:100C400003D1E86840F48030E860206840030FD5A5
:100C5000D5F89C00E16C20F440100843C5F89C00D6
:100C6000E06CB0F5001F03D1E86840F48010E86044
:100C70003046BDE8F88300000010024000700040DC
:100C80002DE9F0470E4605004FF0000725D0DFF8AC
:100C9000AC81D8F8000000F00F00B0420CD2D8F8B8
:100CA000001021F00F013143C8F80010D8F80000FF
:100CB00000F00F00B04210D12968614CC80741F222
:100CC000883A5AD06868DFF87C91032808D0022857
:100CD00020682DD0400500282CDB0120BDE8F087DE
:100CE00020688001F9D5E06800F00302E068C0F3F5
:100CF0000310401C032A19D0534A00BFB2FBF0F086
:100D0000E268C2F306225043E268C2F34162521C19
:100D10005200B0FBF2F0484517D9A06810F0F00F70
:100D20000CD0880711D5A86840B10EE0474AE5E726
:100D30008003D0E700F0B6F8484506D9A06820F057
:100D4000F00040F08000A0608027A068696820F073
:100D500003000843A060FFF715FD814606E000BFD1
:100D6000FFF710FDA0EB090151453AD8A06869686A
:100D700000F00C00B0EB810FF2D12868810714D588
:100D8000400703D5A06840F4E060A0602878000721
:100D900005D5A06820F4605040F4E060A060A06831
:100DA000A96820F0F000084304E0802F03D1A06878
:100DB00020F0F000A060D8F80010404601F00F01CC
:100DC000B14216D9016821F00F0131430160FFF7EC
:100DD000D9FC074607E000BFFFF7D4FCC11B514513
:100DE00001D903207AE7D8F8000000F00F00B042E4
:100DF000F2D12878400705D5A068E96820F4E060C2
:100E00000843A0602878000706D5A068296920F467
:100E1000605040EAC100A06000F044F8A1680C4AAC
:100E2000C1F30311515C01F01F01C840094908607A
:100E300009480068BDE8F047FFF7C2BC0020024047
:100E40000010024000B4C4040024F40000127A0030
:100E5000424500080C00002000000020054806491B
:100E600000688968054AC1F30221515C01F01F0145
:100E7000C84070470C000020001002405245000896
:100E80000548064900688968054AC1F3C221515CDA
:100E900001F01F01C84070470C0000200010024004
:100EA00052450008184910B58868C0F381021748F8
:100EB000012A0BD08A684310C2F38102022A06D0AD
:100EC0008A68C2F38102032A03D0002010BD1846AD
:100ED00010BDCA6802F00304CA68C2F30312521CB0
:100EE000032C02D0B0FBF2F001E0B3FBF2F0CA68D1
:100EF000C968C2F306225043C1F34161491C49004D
:100F0000B0FBF1F010BD0000001002400024F4001E
:100F10002DE9F84304007AD02078F84DC00747D077
:100F2000A868E96800F00C0001F003010C2802D069
:100F3000082817D001E0032914D06068B0F5803F7D
:100F400017D0B0F5A02F286817D020F48030286083
:100F5000286820F4802028606068E0B1FFF712FC68
:100F6000064614E02868800322D560680028D2D0A5
:100F70001EE0286840F48030EDE740F480202860CF
:100F8000F7E700BFFFF7FEFB801B642870D82868D6
:100F90008003F7D50CE0FFF7F5FB064605E000BF40
:100FA000FFF7F0FB801B6428F0D828688003F7D493
:100FB000207880074CD5A868E96800F00C0001F0A3
:100FC00003010C2802D004280DD001E002290AD028
:100FD000E068002828682BD040F480702860FFF774
:100FE000D1FB064619E02868400502D5E0680028D4
:100FF00091D06868217C20F0FE4040EA0160686082
:10100000BF480068FFF7DCFB002800D120E072E158
:10101000FFF7B8FB801B0228B8D828684005F7D531
:101020006868217C20F0FE4040EA016068600FE0C3
:1010300020F480702860FFF7A5FB064605E000BF9E
:10104000FFF7A0FB801B0228A0D828684005F7D432
:101050002078000729D560690028D5F8940013D0BE
:1010600040F00100C5F89400FFF78CFB064606E04F
:1010700090E000BFFFF786FB801B022886D8D5F8DA
:1010800094008007F6D510E020F00100C5F8940028
:10109000FFF778FB064604E0FFF774FB801B02288D
:1010A00078D8D5F894008007F6D42078400761D529
:1010B000A86D0026C00008D4A86D40F08050A86537
:1010C000A86D012600F0805000908E480168C90587
:1010D00011D40168804641F480710160FFF752FB32
:1010E000074604E0FFF74EFBC01B022852D8D8F891
:1010F0000000C005F6D5A068012815D00528D5F850
:10110000900016D020F00100C5F89000D5F89000AE
:1011100020F00400C5F89000A06841F28838B8B10A
:10112000FFF730FB07460EE0D5F8900040F00100D5
:10113000F0E740F00400C5F89000F5E7FFF722FB68
:10114000C11B414526D8D5F890008007F6D50CE0A4
:10115000FFF718FB074604E0FFF714FBC11B4145EE
:1011600018D8D5F890008007F6D41EB1A86D20F0ED
:101170008050A8652078800629D5A0690028D5F878
:10118000980013D040F00100C5F89800FFF7FAFA74
:10119000064606E075E000BFFFF7F4FA801B022860
:1011A0006FD8D5F898008007F6D510E020F0010040
:1011B000C5F89800FFF7E6FA064604E0FFF7E2FA02
:1011C000801B02285DD8D5F898008007F6D4E06926
:1011D000F0B3A968C1F3810103295DD00228286812
:1011E00020F08070286003D0FFF7CCFA04464BE073
:1011F000FFF7C8FA064604E0FFF7C4FA801B02288E
:101200003FD828688001F7D4F4E908016FF00F0295
:1012100002EB01110843218A5204490802EB4151B3
:10122000A26841EA02210843217D4FF07E4249082D
:1012300002EB41610843217B40EAC160E968324A20
:1012400011400843E860286840F08070286000E0A2
:101250005EE0E86840F08070E860FFF793FA0446CB
:1012600005E000BFFFF78EFA001B022809D82868A6
:101270008001F7D54CE000BFFFF784FA001B02287D
:1012800002D90320BDE8F88328688001F4D4E86817
:101290001E490840E8603BE00128F3D0E868226A74
:1012A00000F00301914226D1616A00F0F0020901C9
:1012B000103991421FD1A26A00F4FE41B1EB022F16
:1012C00019D194F82C2000F07841B1EBC26F12D103
:1012D000218E00F4C00249084905A1F50011914290
:1012E00009D194F8341000F0C06049084906A1F112
:1012F000007181420CD00120C4E7000000100240C0
:1013000000000020007000400C809F01FCFFEEFEFA
:101310000020B7E770B5040009D0606A002540B12D
:1013200025616561A56294F85D0040B10CE0012083
:1013300070BD6068B0F5827FF4D0E561F2E784F8B3
:101340005C50204600F05CF8022084F85D002068C4
:10135000016821F040010160E1684FF4E0629142D0
:1013600001D9002001E04FF48050B1F5706F02D038
:10137000914200D0A562A188228901F4827102F411
:1013800004421143227C02F002021143227D02F04A
:1013900001021143228B02F400721143227F02F0FA
:1013A0003802114394F8202002F080021143228D6C
:1013B00002F40052114322681160A169042202EA7A
:1013C000114194F8242000F4805002F010021143DF
:1013D00094F8342002F008021143A28902F47062EA
:1013E00011430143206841602068C16921F4006114
:1013F000C1612566012084F85D00002070BD0000F9
:1014000010B586B0044614216846FEF7FEFF124967
:10141000206888421DD11148016E41F48051016657
:10142000016E01F480510591C16C41F00201C1646B
:10143000C06C694600F00200059038200090022040
:101440000190002002900390052004900448FFF7CB
:1014500079F806B010BD00000030014000100240D5
:10146000000400482DE9FF5F1D46934604464FF0F7
:1014700001090E9EFFF786F9074694F85D00616842
:10148000012806D0B1F5827F39D1A168B1BB04280B
:1014900035D1019800287CD0BBF1000FFBD0002D86
:1014A000F9D094F85C00012829D04FF0010A84F8A3
:1014B0005CA094F85D00042802D0052084F85D004B
:1014C0004FF00008C4F86080C4F840B0A4F846505B
:1014D000A4F844500199A163E587A587C4F84C801E
:1014E000C4F85080E0684FF4E061884201D8012DD3
:1014F00009D92068426822F4805208E0FFE7022000
:1015000004B0BDE8F09F2068426842F48052426017
:1015100020680268520603D4026842F0400202606A
:10152000E0688842606846D908B1012D3BD1A06BC4
:1015300001882068C160A06B801CA063E08F401E02
:10154000E08730E02068816889070FD5E18F69B1B5
:10155000B9F1010F0AD1A16B0988C160A06B801C91
:10156000A063E08F401EE0874FF00009206881688B
:10157000C90711D0B4F8461071B1C068216C088059
:10158000206C801C2064B4F84600401EA4F846007D
:1015900000E09EE04FF00109FFF7F4F8C01BB042F5
:1015A00001D3701C74D1E08F0028CBD1B4F8460071
:1015B0000028C7D175E008B1012D6BD1E08F01285B
:1015C000A06B08D921680088C860A06B801CA0634C
:1015D000E08F801E07E0216800780873A06B401C34
:1015E000A063E08F401EE08754E02068816889078F
:1015F0001AD5E18FC1B1B9F1010F15D1E18F0129E0
:10160000A16B07D90988C160A06B801CA063E08F23
:10161000801E06E009780173A06B401CA063E08F78
:10162000401EE0874FF0000920688168C90728D074
:10163000B4F8461029B3B4F84610012914D9C0688B
:10164000216C0880206C801C2064B4F84600801E49
:10165000A4F84600B4F84600012810D82068416874
:1016600041F4805141600AE0007B216C0870206CDD
:10167000401C2064B4F84600401EA4F846004FF019
:101680000109FFF77FF8C01BB04202D3701C01D0E4
:1016900012E08EB1E08F0028A7D1B4F846000028F0
:1016A000A3D13A463146204600F035FF50B1202004
:1016B000206684F85C800CE084F85DA084F85C808F
:1016C00003201DE784F85DA084F85C80206E00286C
:1016D000F7D0012014E710B5401EB0F1807F01D390
:1016E000012010BD4FF0E02460610F21601701F070
:1016F000B4FE0020A06107202061002010BD7047CB
:101700007047704730B590F83C20012A45D001223F
:1017100080F83C20CA688B6822F440721A434B68F8
:1017200022F480621A430B6822F400621A430B69A8
:1017300022F480521A434B6922F400521A430B6B75
:1017400022F480421A430B8B22F4702242EA0342B5
:10175000CB6922F080521A43114D03680024AB423A
:1017600005D0104DAB4202D00F4DAB4210D10D8DC4
:1017700022F4700242EA05520D6A22F080722A4376
:101780004D6A22F000722A43C96A22F000520A43CD
:101790005A6480F83C40002030BD022030BD00007B
:1017A000002C014000340140005001407047704758
:1017B00070470000F0B590F83C20012A43D0012585
:1017C00080F83C50022280F83D2003685A689C68EB
:1017D0001E4E1F4FDFF87CC0B34203D0BB4201D086
:1017E000634504D122F4700E4A6842EA0E02DFF823
:1017F00068E002EA0E02D1F800E04EEA020EC3F8F9
:1018000004E00268B24212D0B2F1804F0FD0134B05
:101810009A420CD0124B9A4209D0124B9A4206D0EF
:10182000BA4204D0104B9A4201D0624504D1896873
:1018300024F080031943916080F83D50002180F826
:101840003C100846F0BD0220F0BD0000002C014015
:1018500000340140005001408FFFFFFD00040040B4
:1018600000080040000C00400040014010B5044654
:10187000022249B104290ED0082913D094F8470058
:10188000012816D0012010BD94F844000128F9D198
:1018900084F844200FE094F845000128F2D184F840
:1018A000452008E094F846000128EBD184F8462052
:1018B00001E084F847200422206801F07CF82068C9
:1018C000416C41F40041416413492068884214D0BE
:1018D000B0F1804F11D0114988420ED01049884292
:1018E0000BD01049884208D00F49884205D00F49D3
:1018F000884202D00E49884207D181680D4A1140C2
:10190000062906D0B1F5803F03D0016841F00101FE
:101910000160002010BD0000002C014000040040C8
:1019200000080040000C004000340140004001402D
:101930000050014007000100704770472DE9F04159
:1019400004460068C66805694FF00007A90713D56B
:10195000B10711D5F91E0161012020772068806947
:101960008007204602D0FFF7E8FF04E000F002F90C
:10197000204600F0E1F92777680716D5700714D5DF
:1019800021686FF0040008610220207720688069D8
:1019900010F4407F204602D0FFF7CFFF04E000F0B4
:1019A000E9F8204600F0C8F92777280715D5300751
:1019B00013D521686FF008000861042020772068A3
:1019C000C0698007204602D0FFF7B7FF04E000F0AF
:1019D000D1F8204600F0B0F92777E80616D5F006D2
:1019E00014D521686FF01000086108202077206866
:1019F000C06910F4407F204602D0FFF79EFF04E04C
:101A000000F0B8F8204600F097F92777E80708D0EB
:101A1000F00706D021686FF001000861204600F051
:101A200025FA280601D4A80408D5300606D5216871
:101A30006FF4025008612046FFF762FEE80508D502
:101A4000300606D521686FF4807008612046FFF7E4
:101A500056FE680608D5700606D521686FF040006E
:101A60000861204600F003FAA80608D5B00606D59E
:101A700021686FF0200008612046FFF742FEE8026F
:101A800008D5F00206D521686FF480100861204661
:101A9000FFF78DFEA80208D5B00206D521686FF4C5
:101AA000001008612046FFF781FE680208D5700229
:101AB00006D521686FF4800008612046FFF778FEA4
:101AC00028020AD5300208D521686FF400000861A9
:101AD0002046BDE8F041FFF72FBFBDE8F0810000D0
:101AE000F0B587B0044614216846FEF78EFC1E4907
:101AF0002068884236D11D48C16C41F00201C164A2
:101B0000C16C01F002010591C16C41F00101C16499
:101B1000C06C022500F0010005904FF4C040009019
:101B20000024CDE901540626114FCDE9034669464C
:101B30003846FEF707FDA8030090CDE901540420C4
:101B4000CDE9034069463846FEF7FCFC4FF4E060FF
:101B50000090CDE90154CDE9034669464FF090402D
:101B6000FEF7F0FC07B0F0BD002C01400010024071
:101B700000040048704770B5044690F83C00002609
:101B80000D4601280BD0012084F83C000C2A4AD0D5
:101B900007DC82B1042A20D0082A06D131E00220D5
:101BA00070BD102A53D0142A63D00126002084F877
:101BB0003C00304670BD206800F00AFF2068816953
:101BC00041F0080181612068816921F0040181618F
:101BD000206881692A69114311E0206800F052FFF2
:101BE0002068816941F4006181612068816921F484
:101BF00080618161206881692A6941EA02218161ED
:101C0000D4E7206800F092FF2068C16941F0080124
:101C1000C1612068C16921F00401C1612068C16906
:101C20002A69114311E0206800F0D4FF2068C169DF
:101C300041F40061C1612068C16921F48061C16122
:101C40002068C1692A6941EA0221C161AEE72068C2
:101C500001F014F82068016D41F008010165206869
:101C6000016D21F0040101652068016D2A691143AD
:101C700011E0206801F03EF82068016D41F4006138
:101C800001652068016D21F4806101652068016DA6
:101C90002A6941EA0221016588E710B5040003D0F2
:101CA00094F83D0010B107E0012010BD002084F839
:101CB0003C00204600F022F8022084F83D00211D5F
:101CC000206800F0FDFD012084F8480084F83E0003
:101CD00084F83F0084F8400084F8410084F8420012
:101CE00084F8430084F8440084F8450084F84600F2
:101CF00084F8470084F83D00002010BD08B5006856
:101D00000B49884212D10B48016E41F40061016613
:101D1000006E002200F40060009011461B20FEF7C8
:101D200097FDBDE808401B20FEF784BD08BD0000FC
:101D3000002C014000100240054A0168914205D183
:101D4000007F082802D1034800F082BB70470000E2
:101D5000002C0140A001002070B50446022269B1A8
:101D6000042912D0082917D00C291CD0102921D001
:101D700094F84300012824D0012070BD94F83E005F
:101D80000128F9D184F83E201DE094F83F00012895
:101D9000F2D184F83F2016E094F840000128EBD1FE
:101DA00084F840200FE094F841000128E4D184F841
:101DB000412008E094F842000128DDD184F8422057
:101DC00001E084F843200122206800F0E7FD1D496E
:101DD00020681D4A1D4B1E4D88420BD0904209D0F1
:101DE000984207D01B4EB04204D01B4EB04201D0E7
:101DF000A84203D1466C46F40046466420688842F7
:101E000011D0B0F1804F0ED0144988420BD0144944
:101E1000884208D01349884205D0904203D09842A6
:101E200001D0A84207D181680F4A1140062906D087
:101E3000B1F5803F03D0016841F00101016000204D
:101E400070BD0000002C0140003401400040014002
:101E5000005001400044014000480140000400409F
:101E600000080040000C0040070001007047704768
:101E700090F88410012918D0012180F884102421C1
:101E8000C0F8881001680A680B6823F001030B6032
:101E900022F0005100224266036819602021C0F838
:101EA000881080F88420104670470220704770B573
:101EB000044690F8840001281DD0012084F8840095
:101EC0002420C4F8880020680568026822F0010216
:101ED00002602068826822F060620A4382602046C5
:101EE00000F046FF206805602020C4F8880000202C
:101EF00084F8840070BD022070BD70B5044690F86F
:101F0000840001281DD0012084F884002420C4F816
:101F1000880020680568026822F0010202602068DB
:101F2000826822F060420A438260204600F020FF6F
:101F3000206805602020C4F88800002084F8840010
:101F400070BD022070BD10B5040003D0D4F8880025
:101F500010B107E0012010BD002084F88400204665
:101F600000F026F82420C4F888002068016821F0D9
:101F700001010160A06A10B1204600F01BFF20465D
:101F800000F0FCFF0128E6D02068416821F4904170
:101F900041602068816821F02A0181602068016821
:101FA00041F0010101602046BDE8104000F066BF2D
:101FB00010B59CB00446142115A8FEF726FA54214A
:101FC0006846FEF722FA17492068884227D1042084
:101FD0000024009003946846FEF7D2FC08B1FEF797
:101FE000A3FA1148816D41F480218165816D01F46E
:101FF00080211A91C16C41F00201C164C06C15A925
:1020000000F002001A904FF4406015900220CDE9D4
:1020100016040720CDE918400448FEF793FA1CB0D7
:1020200010BD0000004800400010024000040048BD
:102030002DE9F84F0446D0F88800984615460E461C
:10204000202802D00220BDE8F88F96B38DB300207F
:10205000C4F890004FF02109C4F888901834FEF7B6
:1020600091FBA5878246E58754F8100C183CB0F523
:10207000805F01D1206910B13546002600E00025BF
:102080005FF02007B4F8560053464FF00002CDF839
:102090000080D8B18021204601F0BCF8D8B955B1F4
:1020A00015F8010B21688862D4F8881039EA01001C
:1020B00006D00120C7E736F8020BC0F30800F1E7AD
:1020C000B4F85600401EA4F85600DBE74021204635
:1020D00001F0A0F818B1C4F888700320B3E7C4F881
:1020E00088700020AFE7FEE73EB500200E4C01905F
:1020F0000246029004212046FEF73EFB6FF07F402F
:102100000090032301AA02A90848FFF7ABF90122B6
:1021100004212046FEF730FB9DF804009DF80510D1
:10212000800140EA91003EBD000C004810000020F4
:10213000F0B587B014216846FEF767F92548C16CF1
:1021400041F00401C164C16C01F004010591C16C4E
:1021500041F02001C164C16C01F020010591C16C06
:1021600041F00201C164C16C01F002010591C16C32
:1021700041F00101C164C16C01F001010591C16C24
:1021800041F00801C164C06C134E00F008004FF428
:1021900000540590002221463046FEF7EDFA0F4F1D
:1021A000002204213846FEF7E7FA0125CDE9004573
:1021B00000240294694630460394FEF7C3F90420D4
:1021C0000090CDE90154694638460394FEF7BAF908
:1021D00007B0F0BD0010024000080048000C0048A5
:1021E000124810B5104901604FF48271416000211E
:1021F0004FF4E062C0E902120122C0E90412520267
:1022000082612022C0E9072107224162C0E90A1247
:1022100001634163FFF77EF8002803D0BDE810405A
:10222000FEF782B910BD0000003001401000002010
:1022300010B598B00024149415941C216846169487
:10224000FEF7E3F8342107A8FEF7DFF831483049FC
:10225000C0E900142021816041F29901C0E9031412
:1022600044618461FFF719FD08B1FEF75DF914942C
:10227000159414A927481694FFF79CFA08B1FEF7A5
:1022800053F96020CDE9000402940394049405946A
:10229000002269461F480694FFF76DFC08B1FEF75F
:1022A00043F9042269461B48FFF765FC08B1FEF7B5
:1022B0003BF9082269461748FFF75DFC08B1FEF7B5
:1022C00033F941F2950001900C2269461148FFF75D
:1022D00052FC08B1FEF728F90794089409944FF4CA
:1022E00000500A94CDE90B400D9400030E94CDE903
:1022F0000F401194129407A906481394FFF702FAAD
:1023000008B1FEF711F90348FFF7EAFB18B010BD5A
:10231000002C014074000020184810B516490160D7
:102320004FF4E1314160002181600C22C160C0E9BD
:1023300004128161C161016241628162FFF703FEA3
:1023400008B1FEF7F1F800210C48FFF7D6FD08B1FF
:10235000FEF7EAF800210948FFF7A9FD08B1FEF7EA
:10236000E3F80648FFF784FD002803D0BDE81040DD
:10237000FEF7DAB810BD000000480040C0000020A1
:10238000FEE7000010B500210C48FFF7E5FC042132
:102390000A48FFF7E1FC08210848FFF7DDFC0021AF
:1023A0000648FFF763FA04210448FFF75FFABDE827
:1023B000104008210148FFF759BA000074000020BE
:1023C00010B50C210648FFF7C7FC05480068C16836
:1023D00041F01001C160BDE81040FFF7D3BF00001D
:1023E00074000020044B10B51C686063186881639A
:1023F0001868C26310BD00007400002010B50446C8
:10240000FFF7DEFFDFED0D0AB2EE080A204600F00E
:1024100011FADFED0B1A9FED0B1ADFED0B0A9FEDA2
:102420000B0A04F1400000F040FF04F16C00BDE82D
:102430001040002243F6FF71FEF75BB800C88445E8
:1024400017B7513817B7D1380000000000004842D4
:1024500010B50446FFF748FE014604F16C00FEF794
:102460004BF804F1100104F1400000F021FF204678
:10247000FEF75CF8A08F82B2208F81B2A08EBDE8FB
:10248000104080B2FFF7AEBFFEE7704790ED050A3F
:10249000FEEE000A80ED070A20EE200A90ED061AF3
:1024A000DFED060AF0EE401A01EE600A41EE201A56
:1024B000C0ED081A80ED090A70470000D7B35D3FF0
:1024C00010B504462DED028B90ED040A00F0D6FF06
:1024D000D4ED020A20EE208A94ED040A01F0F8F807
:1024E000D4ED030A00EEC08A84ED058A94ED040A57
:1024F00001F0EEF8D4ED020A20EE208A94ED040AF1
:1025000000F0BCFFD4ED030A00EE808A84ED068A59
:10251000BDEC028B10BDF8B515460E460B46009279
:10252000044600224FF4C05100F01AF888B933462F
:10253000002280212046009500F082F848B93346F9
:1025400000224FF4C0612046009500F009F80028F1
:1025500004D0206E40F0200020660320F8BD00006B
:102560002DE9FE4F4FF0000A984617460E460446E6
:102570000C9D8DF804A0FEF705F9411BA8EB0105A1
:10258000FEF700F9814620684FF4C06B0C300290D2
:102590002A480068C0EBC00000EB8000000D6843D3
:1025A000009016E05E4506D12FB9029800788DF8AC
:1025B00004009DF80400B8F1FF3F0AD0FEF7E2F8EE
:1025C000A0EB0900A8420CD25DB1009898B3401E60
:1025D0000090206880683040B842E3D10020BDE818
:1025E000FE8F2068416821F0E00141606068B0F52D
:1025F000827F0BD1A068B0F5004F02D0B0F5806F9C
:1026000004D12068016821F040010160A06AB0F5A2
:10261000005F09D12068016821F400510160206841
:10262000016841F400510160012084F85D0084F8E4
:102630005CA00320D3E7FFE70025CAE70C000020D9
:102640002DE9F8431E46914688460446089DFEF74C
:1026500099F8401B351AFEF795F80746264800689A
:10266000C0F3CB3068430AE0701C09D0FEF78AF84B
:10267000C01BA8420FD275B10098B8B3401E00909D
:102680002068816838EA010033D000214945EBD148
:102690000020BDE8F8832068416821F0E001416036
:1026A0006068B0F5827F0BD1A068B0F5004F02D012
:1026B000B0F5806F04D12068016821F0400101600D
:1026C000A06AB0F5005F09D12068016821F40051CB
:1026D00001602068016841F400510160012084F824
:1026E0005D00002084F85C000320D2E7FFE70025AE
:1026F000C6E70121CAE700000C0000207047000077
:1027000070B504462DED088B90ED071AD0ED080A40
:1027100090ED090AB4EEE01AF1EE10FA07DDB4EE1E
:10272000C01AF1EE10FA0ADDF0EE411A09E0F4EEFB
:10273000C00AF1EE10FA02DDF0EE601A01E0F0EEF0
:10274000401AB4EEE01AB0EE612AF1EE10FA07D2A8
:10275000B4EEC01AF1EE10FA0AD2F0EE411A09E016
:10276000F4EEC00AF1EE10FA02D2F0EE601A01E0C7
:10277000F0EE401A72EE211ABEEE002A61EE821AC5
:1027800031EE219A30EEA1BA70EE218A84ED0A9AD8
:1027900084ED0BBAC4ED0C8A6568284601F042FE50
:1027A00094ED008A41EC1A0B89EE080A10EE100A2B
:1027B00001F038FE9FED1D9B53EC192B01F066F9DB
:1027C00053EC1A2B01F092FB01F060FB606328468A
:1027D00001F028FE8BEE080A41EC1A0B10EE100AED
:1027E00001F020FE53EC192B01F050F953EC1A2B99
:1027F00001F07CFB01F04AFBA063284601F012FEC9
:1028000088EE880A41EC1A0B10EE100A01F00AFE5D
:1028100053EC192B01F03AF953EC1A2B01F066FB3B
:1028200001F034FBE063BDEC088B70BD00000000DC
:102830000000E03F80EC020A7047FDF7A9BF10B529
:1028400094B038216846FDF7E0FD14210EA8FDF78D
:10285000DCFD0020FEF72EF801200090000401901E
:1028600002200324CDE907045521CDE909010B908D
:102870000C900D906846FEF74BFB08B172B6FEE770
:102880000F20CDE90E040020109011901290042129
:102890000EA8FEF7F5F9002801D072B6FEE714B0D5
:1028A00010BD00000248016841F4700101607047EA
:1028B00088ED00E00148FFF741B8000074000020F7
:1028C0002DE9F04F02682C4B2C4E2D4FDFF8B4C091
:1028D0002D4C2E4D4FF0804B98420BD0584509D0CF
:1028E000B04207D0B84205D0604503D0A04201D025
:1028F000A84204D122F070084A6842EA0802DFF8D0
:102900009080DFF89090DFF890A0984211D0584561
:102910000FD0B0420DD0B8420BD0604509D0A042D4
:1029200007D0404505D0484503D0504501D0A842C6
:1029300003D122F44076CA6832434E6922F0800205
:1029400032438E68C6620E688662984209D0A04201
:1029500007D0404505D0484503D0504501D0A84296
:1029600001D109690163016841F00401016001219D
:1029700041610260BDE8F08F002C0140000400407E
:1029800000080040000C00400034014000500140AD
:1029900000400140004401400048014010B501F0F2
:1029A0001F030121046A99408C430462016A9A4022
:1029B0001143016210BD10B501F00F030421046A38
:1029C00099408C430462016A9A401143016210BD30
:1029D0002DE9F047056A026A22F0010202624368AB
:1029E0008269214C25F0020522400C6822F0030286
:1029F00014438A681E4E2A431C4D1E4FDFF878C0D0
:102A0000DFF87890DFF878A0A84209D0B04207D06C
:102A1000B84205D0604503D0484501D050450AD1A1
:102A2000D0F8208028F00408C0F8208022F00808A0
:102A3000CA6842EA0802A84209D0B04207D0B842A8
:102A400005D0604503D0484501D0504505D14D69BA
:102A500023F440731D438B692B43436084614968B1
:102A600041630262BDE8F0878FFFFEFF002C01404A
:102A70000034014000400140004401400048014052
:102A800000500140F0B5056A026A22F010020262AD
:102A9000426883691E4C204E23400C6823F4407327
:102AA00043EA042425F020038D681C4F43EA0513F4
:102AB000184DA84203D0B04201D0B8420BD1D0F893
:102AC00020C02CF0400CC0F820C0D1F80CC023F07E
:102AD000800343EA0C13A8420CD0B0420AD0104D38
:102AE000A84207D00F4DA84204D00F4DA84201D0F4
:102AF000B84207D14D6922F4406242EA85028D69ED
:102B000042EA850242608461496881630362F0BDE4
:102B1000FF8FFFFE002C01400034014000500140B7
:102B2000004001400044014000480140F0B5056A02
:102B3000026A22F4807202624268C3691E4C204E0F
:102B400023400C6823F003031C4325F400738D68B5
:102B50001C4F43EA0523194DA84203D0B04201D0CF
:102B6000B8420BD1D0F820C02CF4806CC0F820C043
:102B7000D1F80CC023F4006343EA0C23A8420CD024
:102B8000B0420AD0104DA84207D0104DA84204D040
:102B90000F4DA84201D0B84207D14D6922F44052EE
:102BA00042EA05128D6942EA05124260C461496831
:102BB000C1630362F0BD00008FFFFEFF002C0140E7
:102BC00000340140005001400040014000440140F9
:102BD00000480140F0B5056A026A22F480520262A0
:102BE0004268C3691E4C204E23400C6823F4407396
:102BF00043EA042425F400538D681C4F43EA05334F
:102C0000184DA84203D0B04201D0B8420BD1D0F841
:102C100020C02CF4804CC0F820C0D1F80CC023F4A4
:102C2000004343EA0C33A8420CD0B0420AD0104D06
:102C3000A84207D00F4DA84204D00F4DA84201D0A2
:102C4000B84207D14D6922F4404242EA85128D69AB
:102C500042EA85124260C461496801640362F0BDC2
:102C6000FF8FFFFE002C0140003401400050014066
:102C700000400140004401400048014030B5056A71
:102C8000026A22F4803202624268036D124C2340D1
:102C90000C681C4325F400330D8943EA05430F4DAE
:102CA000A8420ED00E4DA8420BD00E4DA84208D01F
:102CB0000D4DA84205D00D4DA84202D00C4DA842A2
:102CC00004D14D6922F4803242EA05224260046553
:102CD00049688164036230BD8FFFFEFF002C014014
:102CE00000340140004001400044014000480140E0
:102CF0000050014030B5046A026A22F48012026278
:102D00004268036D134D24F400142B400D6843EA10
:102D100005230D8944EA05540F4DA8420ED00F4DEE
:102D2000A8420BD00E4DA84208D00E4DA84205D0A7
:102D30000D4DA84202D00D4DA84204D14D6922F498
:102D4000802242EA8522426003654968C1640462C8
:102D500030BD0000FF8FFFFE002C01400034014019
:102D60000040014000440140004801400050014043
:102D700030B5416EB9B1026891689268C1F34261A1
:102D80000B4B520F9C5CE50003F10804A25CB5FB01
:102D9000F2F2A0F86A205A5C615CD200B2FBF1F159
:102DA000A0F8681030BD0121A0F86A10F8E7000013
:102DB0003245000890F82810090706D501684A68CE
:102DC000836B22F400421A434A6090F82810C90726
:102DD00006D001684A68C36A22F400321A434A6086
:102DE00090F82810890706D501684A68036B22F419
:102DF00080321A434A6090F82810490706D50168C6
:102E00004A68436B22F480221A434A6090F82810E3
:102E1000C90606D501688A68C36B22F480521A433A
:102E20008A6090F82810890606D501688A68036CC4
:102E300022F400521A438A6090F82810490611D5EE
:102E400001684A68436C22F480121A434A60416C5C
:102E5000B1F5801F06D101684A68836C22F4C00274
:102E60001A434A6090F82810090606D501684A6896
:102E7000C06C22F4002202434A6070472DE9F843F7
:102E800000260446C0F89060FDF77CFC8046206870
:102E900000684FF0200500076FF07E4713D54346CA
:102EA000002229042046009700F0B4F958B12168A7
:102EB00051E8000F20F0800041E80002002AF6D11E
:102EC000C4F8885021E020680068400722D54346B6
:102ED00000224FF480012046009700F09BF9C8B112
:102EE000216851E8000F20F4907041E80002002AA8
:102EF000F6D12068083050E8001F21F0010140E8B9
:102F00000012002AF5D1C4F88C5084F884600320A4
:102F1000BDE8F883C4F88850C4F88C5044F86C6F4E
:102F2000666026760020F3E710B5026852E8001FBD
:102F300021F4907142E80013002BF6D10E4B026889
:102F4000083252E8001F194042E80014002CF6D164
:102F5000C16E012908D1016851E8002F22F010024A
:102F600041E80023002BF6D12021C0F88C1000216D
:102F7000C166416710BD0000FEFFFFEF2DE9F04183
:102F80000446016880682269E3691043626900258C
:102F90001A431043DFF84CC20A68934B1A400243AD
:102FA0000A6020684168E26821F4405111434160A1
:102FB0002168A069614501D0226A10438A688B4B61
:102FC0001A4002438A602068C16A626A21F00F01D8
:102FD0001143C1628649236886488B420DD1D0F8DF
:102FE000880010F0030006D0012867D0022854D0D2
:102FF000032851D164E001204FE07F498B420BD17F
:10300000D0F8880010F00C0047D0042845D00828DC
:1030100052D00C2840D153E078498B420BD1D0F8E4
:10302000880010F0300038D0102847D0202843D036
:10303000302831D144E072498B420BD1D0F888005E
:1030400010F0C00029D0402838D0802834D0C028C3
:1030500022D135E06B498B420ED1D0F8880010F4B4
:1030600040701AD0B0F5807F28D0B0F5007F23D013
:10307000B0F5407F10D123E063450DD1D0F8880032
:1030800010F4406009D0B0F5806F17D0B0F5006F34
:1030900012D0B0F5406F13D010205B4A5B4F002672
:1030A0004FF40041634539D160B102280DD00428A6
:1030B0000DD0082831D10EE00220EEE70420ECE725
:1030C0000820EAE7FDF7CAFE03E0114603E0FDF73A
:1030D000E9FE01007BD0606A37F810206768B1FB19
:1030E000F2F007EB4703834269D8B0EB073F66D89D
:1030F000002308461946FDF7DFF8090241EA10618E
:1031000002027808101871413A460023FDF7D4F8FE
:103110003F4AA0F54071914257D950E0E3694FF61C
:10312000EF788B422BD1092849D2DFE800F005085F
:103130000D48254848480E00FDF790FE01E0FDF7D8
:103140009FFE010001D142E01146606A37F810008D
:10315000B1FBF0F04100606801EB5001B1FBF0F110
:10316000A1F1100040452AD84FF6F07201EA0200A2
:10317000C1F34201084328E0FDF794FEE1E7092886
:103180001DD2DFE800F005080D1C1E1C1C1C0E00E3
:10319000FDF764FE01E0FDF773FE010001D116E0CA
:1031A0001146606A37F81000B1FBF0F1606801EB7E
:1031B0005001B1FBF0F0A0F11001414504D9012507
:1031C00005E0FDF76FFEE8E780B22168C8600120E6
:1031D000A4F86A0024F8680F2846E6602661BDE876
:1031E000F081000000800040F369FFCFFFF4FF1181
:1031F00000380140001002400044004000480040F8
:10320000004C0040005000400024F4001A45000823
:10321000FFFC0F002DE9F047994617460D4604467E
:103220004FF00008089E33E0701C31D0FDF7AAFA79
:10323000A0EB0900B04218D8BEB120680168490768
:1032400026D5802D24D0402D22D0C169C94309073D
:103250000DD4082505622046FFF766FEC4F890509D
:1032600084F884800120BDE8F0870320FBE7C06973
:10327000C04300050CD421684FF40060086220466A
:10328000FFF752FE2020C4F8900084F88480ECE719
:103290002068C06935EA000004D00020B842C3D0DD
:1032A0000020E0E70120F9E7FEE780EC040A704720
:1032B00070B590ED010AD0ED090A0D46044630EED6
:1032C000600ADFED310A80ED040AD0ED021AB0EE9B
:1032D000C01AB4EEE11AF1EE10FA04D2C4ED050AF8
:1032E000B0EE600A01E084ED050AB5EEC00AF1EE29
:1032F00010FA02DDB7EE000A06E0B5EEC00AF1EE04
:1033000010FA04D2BFEE000A84ED060A01E0C4ED13
:10331000060A94ED000AD4ED060A94ED031A20EE95
:10332000200AD4ED070A40EE010AC4ED070A94ED25
:10333000080A00EE810A84ED080A10EE100A01F076
:1033400071F841EC100B9FED111B00F03FF951ECAF
:10335000100B00F069FB00EE100A84ED0A0AB5EECE
:10336000C00AF1EE10FA05D2DFED0A0A30EE200AAB
:1033700084ED0A0A94ED070A84ED090A94ED0A0A1D
:1033800085ED000A70BD0000000000000000006034
:10339000FB211940DB0FC9400C4910B501F1240095
:1033A00024220446FCF7FFFF084A0020214602F8C9
:1033B000480F4FF0FF335070802090707F20D07006
:1033C000BDE8104028220248FEF732BE540100201A
:1033D000C00000201449154891ED040A80ED000A50
:1033E00091ED110A80ED010A91ED190A80ED020AB2
:1033F00091ED1A0A80ED030A91ED080A80ED040AA6
:1034000091ED090A80ED050A91ED1D0AB8EE400A1A
:1034100080ED060A91ED1E0A80ED070A9FED040A71
:1034200080ED080AFFF7B8BFA0010020540100207A
:10343000000000004100080218BF04200A0E18BF57
:1034400040F001004FF07F4232EA010108BF40F036
:103450000200012808BF052070470907090E00284F
:1034600004DB00F1E02080F80014704700F00F004A
:1034700000F1E02080F8141D7047000010EE101AD3
:1034800008B5444A6846B2EB410F28D94FF0E640F0
:10349000B0EB410F94BF00204FF0FF300090009838
:1034A000002861DB60EE000A10F0010F45D010F03B
:1034B000020FDFED391A9FED391A00EEE11ADFED48
:1034C000381A40EE811A21EEA01AF0EE400A40EEC2
:1034D000010A08BFF1EE600AB0EE600A08BD314B88
:1034E00021F0004293423CD911F0004FDFED2E0A4B
:1034F00020EE201ADFED2D0A19BF31EE601A71EEB1
:10350000200A31EE201A71EE600ABDEEE01A11EECB
:10351000100A9FED271A00F0030000EEC10A9FED8C
:10352000251A009000EEC10A9FED231A00EEC10A91
:103530009FED221A00EEC10AB1E79FED211A9FED1F
:10354000210A10F0020F00EE810A9FED1F1A00EE13
:10355000801AB7EE000A00EE810A18BFB1EE400AE9
:1035600008BD00F0A1F99AE710EE100A4000B0F192
:103570007F4F3CBFB7EE000A08BD07D14FF00100F6
:10358000FCF772FFBDE8084000F07EB9BDE80840D6
:1035900000F076B9B61F927E336D4C39DA82083C62
:1035A000A0AA2ABE490E494683F9223F0000004BDB
:1035B0000000C93F00A0FD390020A2331A61342C5D
:1035C000B93AB2BACA9F2A3DDDFFFFBE10B52DED54
:1035D000040B86B09DED060B10EE100A10EE901A4B
:1035E0008DED000B002818BF0120084320F000409B
:1035F000C0F17F6000F1E040C00F21D19DED080BCC
:1036000010EE101A10EE900A8DED000B002918BF75
:103610000121084320F00040C0F17F6000F1E0404C
:10362000C00F0DD129490798B1EB400F04BF069890
:10363000002842D00998400004BF089800283CD0D8
:103640009DED080B53EC102B9DED060B51EC100B70
:1036500000F044FDCDE902019DED020B40F2FF7147
:1036600010EE900A8DED000B31EA105021D0079832
:10367000039900F0004001F00041884219D09DED0F
:10368000080B8DED040B9DED020B8DED000B10EE84
:10369000900A059961F31E0005909DED041B9DEDB8
:1036A000020B51EC110B53EC102B00F0C5FDCDE9D2
:1036B00002019DED020B0AB010BD0120FCF7D4FE03
:1036C0000AB0BDE8104000F0CBB800000000E0FFF9
:1036D00000B510EE101A2DED028B81B0524A6846EB
:1036E000B2EB410F2ED94FF0E640B0EB410F94BF43
:1036F00000204FF0FF3000900098B0EE408A002884
:103700006ADB10F0010F4BD068EE080A9FED471AF4
:103710009FED470A00EE810A9FED461A10F0020F56
:1037200000EE801AB7EE000A00EE810A02BF01B077
:10373000BDEC028B00BD00BF01B0B1EE400ABDEC94
:10374000028B00BD3C4B21F00042934241D911F065
:10375000004FDFED3A0A20EE201ADFED390A19BFDB
:1037600031EE601A71EE200A31EE201A71EE600A15
:10377000BDEEE01A11EE100A9FED321A00F00300C0
:1037800000EEC10A9FED301A009000EEC10A9FEDD5
:103790002F1A00EEC10A9FED2E1A00EEC10AABE708
:1037A00028EE080A9FED2B1ADFED2B0A10F0020F0E
:1037B00040EE410A9FED291A00EE201A61EE000A40
:1037C000B0EE480A08EE200AB6D101B0BDEC028B7B
:1037D00000BD00F069F88FE718EE100A4000B0F164
:1037E0007F4F0DD218EE100AFFF724FE042808BF01
:1037F00000F052F8B0EE480A01B0BDEC028B00BDFB
:1038000009D10120FCF730FE01B0BDEC028B5DF860
:1038100004EB00F039B801B0B0EE480ABDEC028B01
:103820005DF804EB00F02CB8B61F927EB93AB2BA3C
:10383000CA9F2A3DDDFFFFBE490E494683F9223F5C
:103840000000004B0000C93F00A0FD390020A2335A
:103850001A61342C336D4C39DA82083CA0AA2ABE96
:103860009FED050B10B553EC102B51EC100B00F035
:10387000B5F941EC100B10BD000000000000000085
:1038800030EE000A70470000DFED020A80EEA00A69
:1038900070470000000000009FED020A20EE000AC1
:1038A00070470000000000102DE9F0014FF07F424A
:1038B000B2EB410F9FBF4FF0FF310160BDE8F00157
:1038C00070474FF0004242EA0123C1F3C752783AF1
:1038D000551112F01F0C434CCCF120067C44C1F36F
:1038E000C752A2F178024FEA621204EB820254F846
:1038F000254008BFD2E9015612D0556804FA0CF4ED
:1039000025FA06F73C43976805FA0CF527FA06F8FE
:10391000D26807FA0CFCF24045EA08054CEA0206B8
:10392000A4FB034CA5FB0352A6FB03631D449D426D
:1039300034BF012600261319334416B1934202D92D
:1039400003E0934201D2012200E00022624402F12E
:10395000200C9206DC0C42EA443200EE102A5B0393
:10396000DFED210AF8EEC01A00EE103A4FEA9C1C77
:1039700011F0004FB8EE400AC0F800C020EE201A47
:1039800000EE105ADFED190AB8EE400A20EE200AC8
:1039900071EE810A70EE800A10EE902A02F5006244
:1039A0006FF30B0200EE902A70EEE11A31EEC11AAD
:1039B000DFED101A30EE411A9FED0D0A20EE800A5D
:1039C00001EE210A9FED0C1A00EE810A04BFBDE84A
:1039D000F0017047CCF180510160BDE8F001B1EE1B
:1039E000400A70477C0C0000000000360000802C6C
:1039F00022AAFD29DB0FC92F0000C92FFCF7D0FE3A
:103A0000FEF71DFFFEF794FBFEF786FCFEF710FCA9
:103A1000FEF7E6FB0348FEF7F1FC00BFFFF7DAFC18
:103A2000FCE70000A001002021F00042A2F160525A
:103A3000B2F5801F01F0004328BFD2F17F6C0BD993
:103A40005FEA001C43EAC20242EB507018BF7047A5
:103A500028BF20F001007047B2F5801FBCBF184698
:103A600070474FEA410C1CF5001F02D2084600F0D7
:103A70004FBD70B500F0E4FA00000089FFF7F6BF13
:103A80004FF00040A0F580007047000010B591EAAB
:103A9000030F48BF83F0004300F1E283841A71EB07
:103AA000030C05D2121943EB0C03001B61EB0C0154
:103AB000DFF824E14FEA1154A4EB135C1EEA430F34
:103AC00018BF9EEA445F73D023EA0E03DCF1200E98
:103AD00021EA045143F4801332D322FA0CFE10EB96
:103AE0000E0023FA0CFE41EB0E01CCF1200E03FA7E
:103AF0000EFE10EB0E0051F10001B1F5801FCCF16C
:103B0000200E32D201EB045112FA0EF2BDE8104041
:103B100058BF7047401C38BF5FEA420218BF704769
:103B2000002814BF20F0010041F100014FEA4103D9
:103B300013F5001F38BF7047A1F1C04100F076BBFC
:103B4000012A43EB0302ACF1200CDCF11F0E32BF63
:103B50004FF0000E23FA0CF310EB030041EB04517D
:103B6000B4EB115FD0D0A1EB045101F580114908ED
:103B70005FEA300001EB04510ED350F1000038BF72
:103B800012FA0EFE08D1BDE81040C9E7401C38BF4C
:103B90005FEA4202CAD1C3E7BDE810404FEA4103E1
:103BA00013F5001F38BF7047A1F1C04100F03EBBC4
:103BB0009EEA445F08D011EA5E0FBDE8104004BFE2
:103BC00001F0004100207047BDE8104070B500F0E2
:103BD00037FA00BF64FBBE3E0000E0FF2DE9C041A4
:103BE00030B4DFF8A0C23CEA111418BF3CEA131449
:103BF00000F0EC8081EA03051CEA111444EAD57454
:103C000018BF1CEA131500F0C780A4EB05044FF0A1
:103C1000004545EAC12145EAC32341EA505143EA40
:103C2000525304F17F74994204F500344FEAC020E6
:103C30004FEAC22208BF904200F09C804FEA136511
:103C40000FF24016765D4FEA134506FB05F7C7F104
:103C5000807706FB07F74FEAD737A7FB0368764262
:103C6000C8F58038A7FB06CE38BFA8F1010807FBCE
:103C700008E64FF0000EA6FB028CE6FB03CEDCF15B
:103C8000000CCEF1004E38BFAEF1010EA6FB0C5871
:103C90004FF000074FF00005E6FB0E87A1FB08C6BA
:103CA000A0FB07CE16EB0E0645F10005E1FB07650C
:103CB00015F1E04E7EBFA4F580345FEA46066D4103
:103CC00016F1800745F100054FEA17274FEA06660F
:103CD00047EA0567A6F1DE46B6F1805F4FEA152593
:103CE0001FD9384624F0010C05EBC471BCF1FE6FFE
:103CF00001EB0C1102D8F0BCBDE8008124425CBF8E
:103D000001F5801E9EEAC47F02D4F0BCBDE80081AC
:103D1000244238D4F0BCA1F1C041BDE8004100F01C
:103D200085BA4FEAD22242EA43524FEAD323A7FB95
:103D300002864FEAD02040EA415007FB03661EEAA4
:103D40000E0F4FEAD12105FB026658BFA6EB0056C5
:103D5000B6EB00564FEA520E4EEAC37E18EB0E0E3B
:103D600056EB530EBDD518EB02085E417F1C55F192
:103D70000005B6E74FF480154FF000074FF000063E
:103D80004FF00008ADE7F0BC4FF0000001F1C0417A
:103D900001F00041BDE8008111EA0C1F0CEA131587
:103DA00000D00CE013EA0C1F00F025804FF000005B
:103DB000F0BC81EA030101F00041BDE80081F0BCE4
:103DC000BDE8004181EA030100F030BAF0BCBDE873
:103DD000004170B500F034F9097EFC3E00F007B8F0
:103DE00081EA03014FF0000001F00041704781EAD1
:103DF000030100F01BBAF0BCBDE800414FF0000029
:103E000021497047FFFDFBF9F7F5F4F2F0EEEDEB19
:103E1000E9E8E6E4E3E1E0DEDDDBDAD8D7D5D4D3C8
:103E2000D1D0CFCDCCCBCAC8C7C6C5C4C2C1C0BF14
:103E3000BEBDBCBBBAB9B8B7B6B5B4B3B2B1B0AF1A
:103E4000AEADACABAAA9A8A8A7A6A5A4A3A3A2A1FE
:103E5000A09F9F9E9D9C9C9B9A99999897979695B9
:103E600095949393929191908F8F8E8E8D8C8C8B55
:103E70008B8A8989888887878685858484838382DD
:103E8000828181800000FF070000F87F4FEA410334
:103E90004FEA5353A3F58063D3F11E03C8BFD3F198
:103EA000210C0CDD4FF0004242EAC12242EA50529E
:103EB00032FA03FC8CEAE17CACEBE1707047102B2A
:103EC000C4BF0020704703F5787CBCF1FF3F04D0ED
:103ED0006FF0004282EA2100704770B500F0B0F840
:103EE0004992248000207047F2E70000DFF848C1C3
:103EF00070B51CEA111E1EBF1CEA13159EEA0C0FBA
:103F000095EA0C0F00F06F8081EA030423EA4C135A
:103F10004EEAD47E21EA4C1141F4801143F480131F
:103F2000AE44A1FB024CA0FB0365AEF17F7E3619C7
:103F300055EB0C05A1FB034C4CF10003A0FB021C4C
:103F400016EB0C06654153F10003094218BF46F019
:103F5000010613F4007F0BD14FEA03314FEA05301D
:103F6000340341EA155140EA16506FF003020AE0AB
:103F70004FEAC3214FEAC520F40241EA555140EA15
:103F800056506FF0020202EB2E4201EB025585EA19
:103F9000CE710AD05FEA440C18BF24F0004450F1FF
:103FA000000041F1000120EAD47040F2FE7C62453D
:103FB00000D270BDA84214BF4FF080444FF040447F
:103FC000002E08BF0024BEF1806FA8BFA1F1C04140
:103FD000BDE8704080F22A814FF0000001F1C0413D
:103FE00001F0004170479EEA0C0F0CEA131518BF50
:103FF00095EA0C0F06D04FF0000081EA030E0EF098
:10400000004170BD00F01CF88900013E00F007B8C7
:1040100000F009B84FEA430C5FEA5C5C08D081EA23
:10402000030100F003B94FEA410C5FEA5C5CF6D192
:104030004FF00000014970470000FF070000F87FC3
:104040000EF1020E2EF0030E5EF8046B364205D41C
:10405000012A43EB030515F5001F12D8012841EB97
:10406000010C1CF5001F0CD80ED14FEAD17C15F5C0
:10407000001F0CEB4C0C0CF1020C08BF4CEBD37C7A
:1040800004E04FF0080C01E04FEAD37C0CEB4C0548
:1040900026FA05F606F00706B6F1040C06D20EEB7A
:1040A000860CBDE870404CF0010C6047DFE80CF076
:1040B000090B02024FF000414FF00000A1F5002172
:1040C00070BD19461046012851EB010418BFD4F504
:1040D000001484BF002001F0004170BDDFF844C12E
:1040E00070B53CEA111418BF3CEA131500F08F803C
:1040F00011F1004F1CEA13150CEA111468BF45F0CA
:10410000050518BF11EA0C1F00F079802E4621EA40
:104110004C1123EA4C1341F4801143F48013A5F5AC
:104120008035AC423DDD801A9941A4F5803609D531
:104130004042C1F1000134BFB1F10101B1F1000110
:1041400085F0010511F4F01F08D011F4801FE8D1AB
:10415000400041EB0101A4F58034F6E721F0004175
:10416000B1FA81F6202E04BFB0FA80FE0EF12006CF
:10417000A6F10B06B6F1200EA4EB06440CD2C6F154
:10418000200E01FA06F120FA0EF641EA0601CEF100
:10419000200600FA06F003E000FA0EF14FF00000EE
:1041A000BFE750EA410E23D04FEA244EBEEB254F25
:1041B0000FDB994208BF904204D00AD3520043EB70
:1041C0000303B0E74FEA1646B6EB144F08BF85F07D
:1041D0000105B4F5803401EB041181EAC57100DBFF
:1041E00070BD01F1C0414FF0000001F0004170BD11
:1041F0004FEA45714FF0000001F0004170BD1CEA2C
:10420000131F09D04FF0000001F0004170BDFFF70F
:1042100017FF00BFEDFFFF3EBDE870404FF000000C
:10422000014970470000FF070000F87F0808A0F56B
:1042300000114FEA3101704791EA030F10B581F088
:1042400000413FF52BAC83F0004300F009B80000BB
:1042500010B591EA030F48BF83F000433FF51EAC51
:10426000841A71EB030C07D212198CF0004C43EB4B
:104270000C03001B61EB0C01DFF8A4E14FEA1154C1
:10428000A4EB135C1EEA430F18BF9EEA445F00F0E4
:10429000B08023EA6E03524221EA0451C3EB6E035D
:1042A00038BF5B1EDCF1200E25D322FA0CFE10EB8A
:1042B0000E0043FA0CFE41EB0E01CCF1200E03FA86
:1042C0000EFE10EB0E0051F10001CCF1200E29D4AE
:1042D00012FA0EF201EB0451BDE8104058BF7047CE
:1042E000401C1CBFB2F1004F704700280CBF491C96
:1042F00020F00100704712EB020E43EB030218BFDF
:104300004FF0010E4EEA4202ACF1200CDCF11E0E21
:1043100054D943FA0CFE10EB0E0051F1FF31CCF1F1
:104320001E0ED5D50EF1010E12FA0EFE404141EBE4
:10433000010101EB445C5FEA5C5C10D910EBDE70BC
:1043400001EB045138BFBEF1004FBDE8104018BF6B
:10435000704700280CBF491C20F00100704730D284
:104360004FEAD42C11F5001124F400641BD0B1FAEB
:1043700081F20B3AA41AA41ED2F12003914030FA24
:1043800003F31943904001EBCC71002C01EB045175
:10439000BDE81040A8BF704701F1C0414FF00000D8
:1043A00001F000417047B0FA80F310FA03F100D138
:1043B00010BDE41A173C4805C90AE4E701EB0451B3
:1043C00010BD491001EB0451BDE810404FEA300028
:1043D00002E04FF0000170474A0008BF0042F8D0E9
:1043E000B2F5001F28BF704701F000414FF00000F8
:1043F00070479EEA445F07D011EA5E0FBDE81040A7
:1044000004BF002100207047BDE8104070B5FFF7E1
:1044100017FE00BF40DFF63E83F0004110467047B4
:104420000000E0FF43004FEAD30C4FEA3C0C43404E
:104430001FBF40070CF1605113F0FE4F70471CF096
:10444000006F03D100200CF0004170470CF00043D6
:1044500043EA507010B540EACC0000F00EF800BFFF
:10446000000000924FEA0001FFF7E0BE4FF000416C
:104470004FF00000A1F5002170470EF1020E2EF062
:10448000030E5EF8044B244204D44FEA4102B2F119
:104490007F4F11D84FEA4003B3F17F4F0CD80ED1B4
:1044A0004FEAD07CB2F17F4F0CEB4C0C0CF1020CBC
:1044B00008BF4CEBD17C04E04FF0080C01E04FEA60
:1044C000D17C0CEB4C0324FA03F404F00704B4F1A0
:1044D000040C06D20EEB840CBDE810404CF0010C2D
:1044E0006047DFE80CF0070802024FF00040A0F53B
:1044F000800010BD0846420018BFD2F1807288BF0C
:1045000000F0004010BD4FF04070E1EE100A70471F
:10451000FF2141EAD050C0057047010002000400AD
:10452000060008000A000C00100020004000800077
:104530000001010101030701000008040204080151
:104540000101000000000000000001020304060752
:104550000809000000000102030400000000000040
:104560006E83F9A22915444ED15727FCC0DD34F5DE
:10457000999562DB4190433CAB6351FE9C4500083A
:10458000000000201000000014020008AC450008E4
:104590001000002070080000300200081000000029
:0C45A00001000000000000000024F400F6
:04000005080001D915
:00000001FF
