:020000040800F2
:100000003008002079020008F5200008F71D0008DC
:10001000F91F0008EF0400082D2D00080000000063
:100020000000000000000000000000008321000824
:10003000F104000800000000F7200008BF220008BB
:10004000930200089302000893020008930200083C
:10005000930200089302000893020008930200082C
:10006000930200089302000893020008930200081C
:10007000930200089302000893020008930200080C
:1000800093020008930200089302000893020008FC
:1000900093020008930200089302000893020008EC
:1000A00093020008930200089302000893020008DC
:1000B00093020008930200089302000893020008CC
:1000C00093020008930200089302000893020008BC
:1000D00093020008930200089302000893020008AC
:1000E000930200089302000893020008930200089C
:1000F000930200089302000893020008930200088C
:10010000930200089302000893020008930200087B
:1001100093020008930200083923000893020008A4
:10012000930200089302000893020008930200085B
:10013000930200089302000893020008930200084B
:10014000930200089302000893020008930200083B
:10015000930200089302000893020008930200082B
:10016000930200089302000893020008930200081B
:10017000930200089302000893020008930200080B
:1001800093020008930200089302000893020008FB
:100190009302000800000000930200089302000888
:1001A00093020008930200089302000893020008DB
:1001B00093020008930200089302000893020008CB
:1001C00093020008930200089302000893020008BB
:1001D000930200089302000800F002F800F03CF8D7
:1001E0000AA090E8000C82448344AAF10107DA4592
:1001F00001D100F031F8AFF2090EBAE80F0013F0A8
:10020000010F18BFFB1A43F00103184754370000D1
:1002100074370000103A24BF78C878C1FAD8520762
:1002200024BF30C830C144BF04680C607047000070
:100230000023002400250026103A28BF78C1FBD8EF
:10024000520728BF30C148BF0B6070471FB503F08D
:1002500052FB1FBD10B510BD00F014F91146FFF799
:10026000F5FF03F001F800F032F903B4FFF7F2FFF5
:1002700003BC00F035F900000948804709480047F1
:10028000FEE7FEE7FEE7FEE7FEE7FEE7FEE7FEE746
:10029000FEE7FEE704480549054A064B70470000A3
:1002A00029230008D901000830020020300800206E
:1002B000300400203004002053EA020C00F0698072
:1002C0002DE9F04B4FF00006002B1FBFB3FA83F56A
:1002D00003FA05F424FA05F65E4012BF1643B2FA9B
:1002E00082F502FA05F4C5F120051EBF22FA05FCCD
:1002F00044EA0C04203556EA044C4FEA144418BF73
:10030000641C4FF000084FF00009904271EB030CA1
:1003100039D3002919BFB1FA81F701FA07F6B0FA0B
:1003200080F700FA07F6C7F120071EBF20FA07FC86
:1003300046EA0C062037B6FBF4FCA7EB0507103F96
:1003400007F01F0BCBF120060CFA0BFB2CFA06F67C
:1003500044BFB3460026202FA4BF5E464FF0000BDB
:100360005BEA060C08BF4FF0010B19EB0B09ABFB66
:10037000027C48EB0608C01B06FB02CC0BFB03CC3F
:1003800071EB0C01C1E70B46024641464846BDE809
:10039000F08B13B54FF000004FF00001AFF3008079
:1003A000BDE81C40704710B5203AC0F00B80B1E8A2
:1003B0001850203AA0E81850B1E81850A0E818509A
:1003C000BFF4F5AF5FEA027C24BFB1E81850A0E8A3
:1003D000185044BF18C918C0BDE810405FEA827CBD
:1003E00024BF51F8043B40F8043B08BF7047D207D4
:1003F00028BF31F8023B48BF11F8012B28BF20F875
:10040000023B48BF00F8012B70474FF0000200B5D7
:10041000134694469646203922BFA0E80C50A0E827
:100420000C50B1F12001BFF4F7AF090728BFA0E8D5
:100430000C5048BF0CC05DF804EB890028BF40F8A1
:10044000042B08BF704748BF20F8022B11F0804FE3
:1004500018BF00F8012B704770477047704710B500
:1004600000F008F8006810BD10B5044600F002F86E
:10047000046010BD00487047CC0100200048704760
:10048000CC0100207546FFF7F9FFAE46050069462E
:10049000534620F00700854618B020B5FFF7FAFE56
:1004A000BDE820404FF000064FF000074FF0000875
:1004B0004FF0000B21F00701AC46ACE8C009ACE8F6
:1004C000C009ACE8C009ACE8C0098D46704710B55A
:1004D0000446AFF300802046BDE81040FFF7C5BEDC
:1004E00001491820ABBEFEE7260002007047FEE778
:1004F000704772B6FEE710B5044601F017FE2046BD
:1005000001F0FAFD2046BDE8104001F03BBE0000BE
:100510002DE9F04FDFF80C92002301260325A9F105
:10052000040B85B00F2709F1040AABF1040EF1E0CA
:1005300006FA03FC12EA0C027ED00C7904F00304E4
:10054000012C01D0022C20D1846800945C0005FAB3
:1005500004F80494009C24EA08040094D1F80C8068
:10056000049C08FA04F8009C48EA0408C0F80880D3
:10057000446824EA0C0491F804C0CCF3001C0CFA83
:1005800003FC4CEA040CC0F804C00C79E443A40753
:1005900002D18C68012C0ED0C4684FEA430805FADA
:1005A00008FC24EA0C04D1F808C00CFA08FC4CEA58
:1005B000040CC0F80CC00C7904F00304022C16D112
:1005C000DC0800EB840CCDF808C0DCF820C05C0728
:1005D0004FEAD46807FA08F42CEA040C0C6904FA10
:1005E00008F444EA0C04DDF808C0CCF820400468A4
:1005F0004FEA430805FA08FC24EA0C0491F804C009
:100600000CF0030C0CFA08FC4CEA040CC0F800C017
:100610004C6814F4403F7CD0434CD4F860C04CF09C
:10062000010CC4F860C0246E23F0030C04F0010434
:1006300000943E4C644400E06BE00294A4684FEAEE
:10064000837C4FEA1C7807FA08FC24EA0C04B0F11A
:10065000904F06D0DFF8D8C0604505D14FF0010CAF
:1006600020E04FF0000C1DE0DFF8C8C0604502D16B
:100670004FF0020C16E0DFF8C0C0604502D14FF029
:10068000030C0FE0DFF8B4C0604502D14FF0040C5A
:1006900008E0DFF8ACC0604502D14FF0050C01E086
:1006A0004FF0060C0CFA08FC4CEA040C029CC4F84F
:1006B00008C0D9F80040CC46D1F8048094435FEAE2
:1006C000C82800D51443CCF80040DAF80040D446DE
:1006D000D1F8048094435FEA882800D51443CCF80D
:1006E0000040DBF80040DC46D1F8048094435FEA28
:1006F000883800D51443CCF80040DEF80040F446BA
:10070000D1F8048094435FEAC83800D51443CCF88C
:1007100000405B1C0C682246DC407FF409AF05B04A
:10072000BDE8F08F080401400010024000000140C5
:100730000004004800080048000C00480010004871
:10074000001400480AB1816170478162704700005F
:10075000014880687047000000000020024881685E
:1007600042681144816070470000002010B50024E9
:10077000032000F073F80F2000F008F808B10124FE
:1007800001E000F025F8204610BD000070B50E4EC7
:1007900005460024706898B14FF47A71B1FBF0F00F
:1007A0000A490968B1FBF0F000F09AFD40B9102D3C
:1007B00006D200222946501E00F030F8356000E0D5
:1007C0000124204670BD0000000000200C00002025
:1007D0000A4882B0016E41F001010166016E01F02C
:1007E00001010091816D41F080518165806D00F0C3
:1007F0008050009002B000F0A1B80000001002404C
:10080000002809DB00F01F0201219140400980000F
:1008100000F1E020C0F8001170470000F0B40E4B6A
:100820001B680C46C3F30223C3F10705042D00D94E
:100830000425191D072901D2002300E0DB1E012633
:1008400006FA05F1491E214099409E40761E164049
:100850003143F0BC02F0C9BA0CED00E0064900F0EB
:10086000070208684FF6FF03184040EA0220034AD7
:1008700010430860704700000CED00E00000FA052E
:100880002B492C4B0A6832214A432B4940B1B0F521
:10089000007F086829D020F4C06040F480602CE01C
:1008A0000868C0F34120022804D051F8800F20F4DA
:1008B000807022E0D1F8800020F48070C1F88000C0
:1008C000086820F4C06040F400700860B2FBF3F0E8
:1008D000401C00E0401E4A69520501D50028F9D1AC
:1008E000486940050AD503207047C0F3412002281B
:1008F00006D051F8800F40F48070086000207047E7
:10090000D1F8800040F48070C1F88000086820F4BD
:10091000C06040F400700860B2FBF3F0401C00E0DF
:10092000401E4A695205DBD50028F9D1D8E70000FE
:100930000C00002040420F00007000400248816817
:1009400041F4804181607047007000402DE9F84318
:10095000044600680026BB4D00035ED5A86D002745
:10096000C00008D4A86D40F08050A865A86D01278C
:1009700000F080500090DFF8D092D9F8001041F4D8
:100980008071C9F80010FFF7E3FE804606E000BF63
:10099000FFF7DEFEA0EB080002282BD8D9F80000F4
:1009A000C005F5D5D5F8900010F4407014D0216D35
:1009B000814211D0D5F89000D5F8901020F4407005
:1009C00041F48031C5F89010D5F8901021F48031B1
:1009D000C5F89010C5F89000C00711D0FFF7B8FE19
:1009E000804641F2883907E0FFF7B2FEA0EB08012C
:1009F000494501D903260BE0D5F890008007F3D5CF
:100A0000D5F89000216D20F440700843C5F890009F
:100A10001FB1A86D20F08050A8652078C00707D0CE
:100A2000D5F88800616820F003000843C5F8880005
:100A30002078800707D5D5F88800A16820F00C0041
:100A40000843C5F888002078400707D5D5F8880006
:100A5000E16820F030000843C5F8880020780007DE
:100A600007D5D5F88800216920F0C0000843C5F8F3
:100A700088002078C00607D5D5F88800616920F481
:100A800040700843C5F888002078800607D5D5F85F
:100A90008800A16920F440600843C5F888002078E8
:100AA000400607D5D5F88800E16920F44050084396
:100AB000C5F888002078000607D5D5F88800216A97
:100AC00020F440400843C5F888002088C00507D5B9
:100AD000D5F88800616A20F440300843C5F88800E2
:100AE0002068800307D5D5F89C00A16A20F0030098
:100AF0000843C5F89C002088800507D5D5F88800F4
:100B0000E16A20F440200843C5F8880020884005A9
:100B10000FD5D5F88800216B20F440100843C5F8A4
:100B20008800206BB0F5801F03D1E86840F4801086
:100B3000E860208800050FD5D5F88800616B20F4A7
:100B400040000843C5F88800606BB0F5800F03D102
:100B5000E86840F48010E8602088C0040FD5D5F81C
:100B60008800A16B20F040700843C5F88800A06B96
:100B7000B0F1807F03D1E86840F48010E8602088FD
:100B80004FF0006180040ED5D5F88800E26B20F0AC
:100B900040601043C5F88800E06B884203D1E868E4
:100BA00040F48010E860208840040ED5D5F8880015
:100BB000226C20F040601043C5F88800206C884209
:100BC00003D1E86840F48010E860208800040FD565
:100BD000D5F88800616C20F040500843C5F88800C3
:100BE000606CB0F1805F03D1E86840F48030E86069
:100BF0002068C0030FD5D5F88800A16C20F04040D4
:100C00000843C5F88800A06CB0F1804F03D1E868B4
:100C100040F48030E860206840030FD5D5F89C0090
:100C2000E16C20F440100843C5F89C00E06CB0F57E
:100C3000001F03D1E86840F48010E8603046BDE84A
:100C4000F883000000100240007000402DE9F047DA
:100C50000E4605004FF0000725D0DFF8AC81D8F82C
:100C6000000000F00F00B0420CD2D8F8001021F0C4
:100C70000F013143C8F80010D8F8000000F00F0051
:100C8000B04210D12968614CC80741F2883A5AD065
:100C90006868DFF87C91032808D0022820682DD0EE
:100CA000400500282CDB0120BDE8F087206880018A
:100CB000F9D5E06800F00302E068C0F30310401CBF
:100CC000032A19D0534A00BFB2FBF0F0E268C2F326
:100CD00006225043E268C2F34162521C5200B0FB4C
:100CE000F2F0484517D9A06810F0F00F0CD0880733
:100CF00011D5A86840B10EE0474AE5E78003D0E788
:100D000000F0B6F8484506D9A06820F0F00040F0A1
:100D10008000A0608027A068696820F00300084375
:100D2000A060FFF715FD814606E000BFFFF710FD4C
:100D3000A0EB090151453AD8A068696800F00C00A1
:100D4000B0EB810FF2D12868810714D5400703D595
:100D5000A06840F4E060A0602878000705D5A0688E
:100D600020F4605040F4E060A060A068A96820F022
:100D7000F000084304E0802F03D1A06820F0F000C9
:100D8000A060D8F80010404601F00F01B14216D91A
:100D9000016821F00F0131430160FFF7D9FC0746DC
:100DA00007E000BFFFF7D4FCC11B514501D9032068
:100DB0007AE7D8F8000000F00F00B042F2D12878AE
:100DC000400705D5A068E96820F4E0600843A0600A
:100DD0002878000706D5A068296920F4605040EA09
:100DE000C100A06000F044F8A1680C4AC1F30311EF
:100DF000515C01F01F01C8400949086009480068BA
:100E0000BDE8F047FFF7C2BC0020024000100240DE
:100E100000B4C4040024F40000127A002839000849
:100E20000C00002000000020054806490068896881
:100E3000054AC1F30221515C01F01F01C84070470F
:100E40000C0000200010024038390008054806490F
:100E500000688968054AC1F3C221515C01F01F0195
:100E6000C84070470C0000200010024038390008CC
:100E7000184910B58868C0F381021748012A0BD0C1
:100E80008A684310C2F38102022A06D08A68C2F33C
:100E90008102032A03D0002010BD184610BDCA6885
:100EA00002F00304CA68C2F30312521C032C02D0DE
:100EB000B0FBF2F001E0B3FBF2F0CA68C968C2F31C
:100EC00006225043C1F34161491C4900B0FBF1F0D7
:100ED00010BD0000001002400024F4002DE9F8438A
:100EE00004007AD02078F84DC00747D0A868E96898
:100EF00000F00C0001F003010C2802D0082817D0E4
:100F000001E0032914D06068B0F5803F17D0B0F538
:100F1000A02F286817D020F480302860286820F49B
:100F2000802028606068E0B1FFF712FC064614E0FC
:100F30002868800322D560680028D2D01EE0286887
:100F400040F48030EDE740F480202860F7E700BFF0
:100F5000FFF7FEFB801B642870D828688003F7D554
:100F60000CE0FFF7F5FB064605E000BFFFF7F0FBDE
:100F7000801B6428F0D828688003F7D42078800785
:100F80004CD5A868E96800F00C0001F003010C28BA
:100F900002D004280DD001E002290AD0E068002820
:100FA00028682BD040F480702860FFF7D1FB0646FC
:100FB00019E02868400502D5E068002891D06868EB
:100FC000217C20F0FE4040EA01606860BF48006874
:100FD000FFF7DCFB002800D120E072E1FFF7B8FB4F
:100FE000801B0228B8D828684005F7D56868217C9E
:100FF00020F0FE4040EA016068600FE020F480705D
:101000002860FFF7A5FB064605E000BFFFF7A0FB41
:10101000801B0228A0D828684005F7D42078000754
:1010200029D560690028D5F8940013D040F001005C
:10103000C5F89400FFF78CFB064606E090E000BF81
:10104000FFF786FB801B022886D8D5F8940080071E
:10105000F6D510E020F00100C5F89400FFF778FB0A
:10106000064604E0FFF774FB801B022878D8D5F809
:1010700094008007F6D42078400761D5A86D00263B
:10108000C00008D4A86D40F08050A865A86D012666
:1010900000F0805000908E480168C90511D40168A5
:1010A000804641F480710160FFF752FB074604E07F
:1010B000FFF74EFBC01B022852D8D8F80000C0052D
:1010C000F6D5A068012815D00528D5F8900016D0CF
:1010D00020F00100C5F89000D5F8900020F0040041
:1010E000C5F89000A06841F28838B8B1FFF730FB2E
:1010F00007460EE0D5F8900040F00100F0E740F020
:101100000400C5F89000F5E7FFF722FBC11B41453D
:1011100026D8D5F890008007F6D50CE0FFF718FB2D
:10112000074604E0FFF714FBC11B414518D8D5F86A
:1011300090008007F6D41EB1A86D20F08050A865FD
:101140002078800629D5A0690028D5F8980013D00A
:1011500040F00100C5F89800FFF7FAFA064606E0ED
:1011600075E000BFFFF7F4FA801B02286FD8D5F8AE
:1011700098008007F6D510E020F00100C5F898002F
:10118000FFF7E6FA064604E0FFF7E2FA801B0228C2
:101190005DD8D5F898008007F6D4E069F0B3A96867
:1011A000C1F3810103295DD00228286820F08070F6
:1011B000286003D0FFF7CCFA04464BE0FFF7C8FAEB
:1011C000064604E0FFF7C4FA801B02283FD82868CF
:1011D0008001F7D4F4E908016FF00F0202EB01116E
:1011E0000843218A5204490802EB4151A26841EAAE
:1011F00002210843217D4FF07E42490802EB416104
:101200000843217B40EAC160E968324A1140084343
:10121000E860286840F08070286000E05EE0E868E0
:1012200040F08070E860FFF793FA044605E000BFE5
:10123000FFF78EFA001B022809D828688001F7D52D
:101240004CE000BFFFF784FA001B022802D90320FC
:10125000BDE8F88328688001F4D4E8681E49084096
:10126000E8603BE00128F3D0E868226A00F003015F
:10127000914226D1616A00F0F002090110399142D1
:101280001FD1A26A00F4FE41B1EB022F19D194F8EC
:101290002C2000F07841B1EBC26F12D1218E00F406
:1012A000C00249084905A1F50011914209D194F8FD
:1012B000341000F0C06049084906A1F10071814274
:1012C0000CD00120C4E70000001002400000002004
:1012D000007000400C809F01FCFFEEFE0020B7E78D
:1012E00010B5401EB0F1807F01D3012010BD4FF03A
:1012F000E02460610F21601701F077FD0020A061FC
:1013000007202061002010BD704770477047000023
:1013100030B590F83C20012A45D0012280F83C20CD
:10132000CA688B6822F440721A434B6822F48062C8
:101330001A430B6822F400621A430B6922F48052AC
:101340001A434B6922F400521A430B6B22F4804279
:101350001A430B8B22F4702242EA0342CB6922F03B
:1013600080521A43114D03680024AB4205D0104D42
:10137000AB4202D00F4DAB4210D10D8D22F4700262
:1013800042EA05520D6A22F080722A434D6A22F029
:1013900000722A43C96A22F000520A435A6480F854
:1013A0003C40002030BD022030BD0000002C014038
:1013B0000034014000500140704770477047000002
:1013C000F0B590F83C20012A43D0012580F83C502C
:1013D000022280F83D2003685A689C681E4E1F4F09
:1013E000DFF87CC0B34203D0BB4201D0634504D1D7
:1013F00022F4700E4A6842EA0E02DFF868E002EA60
:101400000E02D1F800E04EEA020EC3F804E00268D2
:10141000B24212D0B2F1804F0FD0134B9A420CD08F
:10142000124B9A4209D0124B9A4206D0BA4204D0CB
:10143000104B9A4201D0624504D1896824F08003A0
:101440001943916080F83D50002180F83C10084617
:10145000F0BD0220F0BD0000002C0140003401402E
:10146000005001408FFFFFFD0004004000080040D5
:10147000000C00400040014010B50446022249B172
:1014800004290ED0082913D094F84700012816D05B
:10149000012010BD94F844000128F9D184F84420BB
:1014A0000FE094F845000128F2D184F8452008E0C7
:1014B00094F846000128EBD184F8462001E084F836
:1014C00047200422206800F0B8FF2068416C41F4F6
:1014D0000041416413492068884214D0B0F1804F24
:1014E00011D0114988420ED0104988420BD01049C2
:1014F000884208D00F49884205D00F49884202D05F
:101500000E49884207D181680D4A1140062906D04C
:10151000B1F5803F03D0016841F001010160002076
:1015200010BD0000002C01400004004000080040F5
:10153000000C0040003401400040014000500140D8
:1015400007000100704710B5040003D094F83D0077
:1015500010B107E0012010BD002084F83C002046B7
:1015600000F022F8022084F83D00211D206800F0E0
:10157000E9FE012084F8480084F83E0084F83F002A
:1015800084F8400084F8410084F8420084F8430065
:1015900084F8440084F8450084F8460084F8470045
:1015A00084F83D00002010BD08B500680B49884252
:1015B00012D10B48816D41F010018165806D0022D0
:1015C00000F01000009011463620FFF727F9BDE823
:1015D00008403620FFF714B908BD00000010004095
:1015E0000010024090F83D10012901D00120704701
:1015F000022180F83D100168CA6842F00102CA6009
:1016000000681349884214D0B0F1804F11D01149BD
:1016100088420ED0104988420BD01049884208D029
:101620000F49884205D00F49884202D00E498842AE
:1016300007D181680D4A1140062906D0B1F5803FD7
:1016400003D0016841F001010160002070470000F3
:10165000002C01400004004000080040000C004045
:1016600000340140004001400050014007000100EB
:1016700070472DE9F04104460068C66805694FF0DF
:101680000007A90713D5B10711D5F91E0161012083
:101690002077206880698007204602D0FFF7E8FFA6
:1016A00004E000F001F9204600F0D6F9277768073A
:1016B00016D5700714D521686FF004000861022068
:1016C00020772068806910F4407F204602D0FFF721
:1016D000CFFF04E000F0E8F8204600F0BDF92777DE
:1016E000280715D5300713D521686FF00800086169
:1016F000042020772068C0698007204602D0FFF7C9
:10170000B7FF04E000F0D0F8204600F0A5F92777F5
:10171000E80616D5F00614D521686FF010000861B0
:10172000082020772068C06910F4407F204602D04E
:10173000FFF79EFF04E000F0B7F8204600F08CF9B8
:101740002777E80708D0F00706D021686FF001007E
:101750000861204600F00CFA280601D4A80408D538
:10176000300606D521686FF4025008612046FFF765
:10177000CCFDE80508D5300606D521686FF48070E9
:1017800008612046FFF7C0FD680608D5700606D53B
:1017900021686FF040000861204600F0EFF9A806CC
:1017A00008D5B00606D521686FF0200008612046F4
:1017B000FFF7ACFDE80208D5F00206D521686FF40A
:1017C000801008612046FFF7F8FDA80208D5B00296
:1017D00006D521686FF4001008612046FFF7ECFD84
:1017E000680208D5700206D521686FF48000086190
:1017F0002046FFF7E3FD28020AD5300208D521680C
:101800006FF4000008612046BDE8F041FFF79ABE82
:10181000BDE8F081F0B587B0044614216846FEF7B4
:10182000F4FD1E492068884236D11D48C16C41F044
:101830000201C164C16C01F002010591C16C41F06B
:101840000101C164C06C022500F0010005904FF455
:10185000C04000900024CDE901540626114FCDE987
:10186000034669463846FEF753FEA8030090CDE9CB
:1018700001540420CDE9034069463846FEF748FE8E
:101880004FF4E0600090CDE90154CDE9034669468C
:101890004FF09040FEF73CFE07B0F0BD002C014039
:1018A0000010024000040048704770B5044690F8EC
:1018B0003C0000260D4601280BD0012084F83C0096
:1018C0000C2A4AD007DC82B1042A20D0082A06D18B
:1018D00031E0022070BD102A53D0142A63D00126B3
:1018E000002084F83C00304670BD206800F0B2FD56
:1018F0002068816941F0080181612068816921F0D7
:1019000004018161206881692A69114311E020681E
:1019100000F0FAFD2068816941F40061816120686E
:10192000816921F480618161206881692A6941EAC5
:1019300002218161D4E7206800F03AFE2068C16985
:1019400041F00801C1612068C16921F00401C16151
:101950002068C1692A69114311E0206800F07CFE0B
:101960002068C16941F40061C1612068C16921F446
:101970008061C1612068C1692A6941EA0221C161AF
:10198000AEE7206800F0BCFE2068016D41F0080160
:1019900001652068016D21F0040101652068016D79
:1019A0002A69114311E0206800F0E6FE2068016D0D
:1019B00041F4006101652068016D21F480610165D9
:1019C0002068016D2A6941EA0221016588E710B5A6
:1019D000040003D094F83D0010B107E0012010BDD1
:1019E000002084F83C00204600F022F8022084F811
:1019F0003D00211D206800F0A5FC012084F848006E
:101A000084F83E0084F83F0084F8400084F84100E8
:101A100084F8420084F8430084F8440084F84500C8
:101A200084F8460084F8470084F83D00002010BD8B
:101A300008B500680649884208D10648016E41F49D
:101A400000610166006E00F40060009008BD0000B7
:101A5000002C0140001002407047000070B50446A1
:101A6000022269B1042912D0082917D00C291CD0F0
:101A7000102921D094F84300012824D0012070BD02
:101A800094F83E000128F9D184F83E201DE094F836
:101A90003F000128F2D184F83F2016E094F840007E
:101AA0000128EBD184F840200FE094F84100012890
:101AB000E4D184F8412008E094F842000128DDD107
:101AC00084F8422001E084F843200122206800F0DD
:101AD000A7FC1D4920681D4A1D4B1E4D88420BD096
:101AE000904209D0984207D01B4EB04204D01B4E02
:101AF000B04201D0A84203D1466C46F40046466489
:101B00002068884211D0B0F1804F0ED0144988422D
:101B10000BD01449884208D01349884205D090421E
:101B200003D0984201D0A84207D181680F4A1140E2
:101B3000062906D0B1F5803F03D0016841F00101CC
:101B40000160002070BD0000002C01400034014005
:101B50000040014000500140004401400048014065
:101B60000004004000080040000C00400700010095
:101B7000014800F087BA00008C010020704790F8FF
:101B80008410012918D0012180F884102421C0F884
:101B9000881001680A680B6823F001030B6022F0CB
:101BA000005100224266036819602021C0F88810A5
:101BB00080F88420104670470220704770B50446B4
:101BC00090F8840001281DD0012084F8840024208E
:101BD000C4F8880020680568026822F001020260EB
:101BE0002068826822F060620A438260204600F02A
:101BF00001FE206805602020C4F88800002084F8D9
:101C0000840070BD022070BD70B5044690F8840059
:101C100001281DD0012084F884002420C4F8880005
:101C200020680568026822F001020260206882686C
:101C300022F060420A438260204600F0DBFD20680B
:101C400005602020C4F88800002084F8840070BD5E
:101C5000022070BD10B5040003D0D4F8880010B184
:101C600007E0012010BD002084F88400204600F029
:101C700027F82420C4F888002068016821F00101B9
:101C80000160A06A10B1204600F0D6FD204600F0A9
:101C9000B7FE0128E6D02068416821F490414160F8
:101CA0002068816821F02A0181602068016841F084
:101CB000010101602046BDE8104000F021BE000097
:101CC00010B59CB00446142115A8FEF79EFB5421C4
:101CD0006846FEF79AFB17492068884227D10420FE
:101CE0000024009003946846FEF730FE08B1FEF72A
:101CF00000FC1148816D41F480218165816D01F402
:101D000080211A91C16C41F00201C164C06C15A917
:101D100000F002001A904FF4406015900220CDE9C7
:101D200016040720CDE918400448FEF7F1FB1CB06B
:101D300010BD0000004800400010024000040048B0
:101D40002DE9F84F0446D0F88800984615460E460F
:101D5000202802D00220BDE8F88F96B38DB3002072
:101D6000C4F890004FF02109C4F888901834FEF7A9
:101D7000EFFCA5878246E58754F8100C183CB0F5B7
:101D8000805F01D1206910B13546002600E00025B2
:101D90005FF02007B4F8560053464FF00002CDF82C
:101DA0000080D8B18021204600F076FFD8B955B127
:101DB00015F8010B21688862D4F8881039EA01000F
:101DC00006D00120C7E736F8020BC0F30800F1E7A0
:101DD000B4F85600401EA4F85600DBE74021204628
:101DE00000F05AFF18B1C4F888700320B3E7C4F8B4
:101DF00088700020AFE7FEE730B587B01421684651
:101E0000FEF703FB1A48C16C41F00401C164C16CC8
:101E100001F004010591C16C41F02001C164C16C65
:101E200001F020010591C16C41F00201C164C16C57
:101E300001F002010591C16C41F00101C164C06C67
:101E40000C4D00F001004FF4005405900022214693
:101E50002846FEF777FC012000210094CDE901011E
:101E6000039169462846FEF753FB07B030BD0000DA
:101E7000001002400008004810B598B000241494E7
:101E800015941C210DA81694FEF7BFFA342168465C
:101E9000FEF7BBFA2C482B49C0E9001420218160D1
:101EA00041F29901C0E9031444618461FFF78FFD99
:101EB00008B1FEF71EFB1494159414A92248169439
:101EC000FFF77EFA08B1FEF714FB6020CDE90D04A0
:101ED0000F9410941194129400220DA91A4813948F
:101EE000FFF7E3FC08B1FEF704FB04220DA9164836
:101EF000FFF7DBFC08B1FEF7FCFA08220DA9124837
:101F0000FFF7D3FC08B1FEF7F4FA00944FF4005049
:101F1000CDE9044003940003CDE908400194029404
:101F2000069407940A940B94694607480C94FFF7AB
:101F3000EFF908B1FEF7DDFA0348FFF76BFC18B0C4
:101F400010BD0000002C0140140000203EB500240C
:101F50000E48009401940C490294C0E9001442F226
:101F60003311C0E902418461FFF7EDFA08B1FEF7D1
:101F7000C0FA0094694605480294FFF721FA002848
:101F800001D0FEF7B6FA3EBD001000406000002010
:101F9000184810B5164901604FF4E1314160002145
:101FA00081600C22C160C0E904128161C1610162DB
:101FB00041628162FFF74EFE08B1FEF79AFA0021F6
:101FC0000C48FFF721FE08B1FEF793FA00210948FB
:101FD000FFF7F4FD08B1FEF78CFA0648FFF7CFFDD6
:101FE000002803D0BDE81040FEF783BA10BD000002
:101FF00000480040AC000020FEE7000010B50021C2
:102000000C48FFF72BFD04210A48FFF727FD0821A4
:102010000848FFF723FD00210648FFF72DFA0421A9
:102020000448FFF729FABDE8104008210148FFF7EE
:1020300023BA00001400002010B5FFF7DFFFBDE851
:1020400010400148FFF7CEBA60000020044B10B5E5
:102050001C686063186881631868C26310BD000063
:102060001400002010B50446FFF7E6FF2046BDE847
:102070001040DFED030AB2EE080A00F01DB90000BF
:1020800000C8844510B504461548DFED160A164A07
:1020900090ED000A30EE200A10EE101A80ED000AD2
:1020A000914205DBDFED110A30EE600A80ED000A97
:1020B00084ED040A9FED0E0A204684ED020AB6EE76
:1020C000000A84ED030AFEF716FAA08F82B2208F71
:1020D00081B2A08EBDE8104080B2FFF7B7BF00000C
:1020E0001000002052499D39DB0FC940DB0FC94069
:1020F00000000000FEE7704790ED050AFEEE000AC2
:1021000080ED070A20EE200A90ED061ADFED060AA0
:10211000F0EE401A01EE600A41EE201AC0ED081AF6
:1021200080ED090A70470000D7B35D3F10B5044643
:102130002DED028B90ED040A00F068FED4ED020A4A
:1021400020EE208A94ED040A00F008FFD4ED030A83
:1021500000EEC08A84ED058A94ED040A00F0FEFECC
:10216000D4ED020A20EE208A94ED040A00F04EFE1F
:10217000D4ED030A00EE808A84ED068ABDEC028B62
:1021800010BD704770B504462DED088B90ED071A11
:10219000D0ED080A90ED090AB4EEE01AF1EE10FA5B
:1021A00007DDB4EEC01AF1EE10FA0ADDF0EE411AC6
:1021B00009E0F4EEC00AF1EE10FA02DDF0EE601A6A
:1021C00001E0F0EE401AB4EEE01AB0EE612AF1EE52
:1021D00010FA07D2B4EEC01AF1EE10FA0AD2F0EEFD
:1021E000411A09E0F4EEC00AF1EE10FA02D2F0EE64
:1021F000601A01E0F0EE401A72EE211ABEEE002ADB
:1022000061EE821A31EE219A30EEA1BA70EE218A87
:1022100084ED0A9A84ED0BBAC4ED0C8A65682846F1
:1022200001F0F8FA94ED008A41EC1A0B89EE080AE5
:1022300010EE100A01F0EEFA9FED1D9B53EC192BE6
:1022400001F028F853EC1A2B01F0FCF801F0CAF861
:102250006063284601F0DEFA8BEE080A41EC1A0BA7
:1022600010EE100A01F0D6FA53EC192B01F012F817
:1022700053EC1A2B01F0E6F801F0B4F8A0632846FD
:1022800001F0C8FA88EE880A41EC1A0B10EE100A29
:1022900001F0C0FA53EC192B00F0FCFF53EC1A2BA1
:1022A00001F0D0F801F09EF8E063BDEC088B70BD42
:1022B000000000000000E03F80EC020A7047FEF7DB
:1022C0004DBA10B594B038216846FEF79EF8142137
:1022D0000EA8FEF79AF80020FEF7D2FA012000902F
:1022E0000004019002200324CDE907045521CDE923
:1022F00009010B900C900D906846FEF7EFFD08B1B8
:1023000072B6FEE70F20CDE90E0400201090119068
:10231000129004210EA8FEF799FC002801D072B695
:10232000FEE714B010BD00000248016841F47001DE
:102330000160704788ED00E00148FFF79AB900009E
:10234000600000202DE9F04F02682C4B2C4E2D4FE1
:10235000DFF8B4C02D4C2E4D4FF0804B98420BD07F
:10236000584509D0B04207D0B84205D0604503D0E7
:10237000A04201D0A84204D122F070084A6842EA83
:102380000802DFF89080DFF89090DFF890A0984284
:1023900011D058450FD0B0420DD0B8420BD0604597
:1023A00009D0A04207D0404505D0484503D050454C
:1023B00001D0A84203D122F44076CA6832434E6964
:1023C00022F0800232438E68C6620E6886629842AE
:1023D00009D0A04207D0404505D0484503D050451C
:1023E00001D0A84201D109690163016841F00401EB
:1023F0000160012141610260BDE8F08F002C0140C5
:102400000004004000080040000C0040003401407F
:10241000005001400040014000440140004801409C
:1024200010B501F01F030121046A99408C43046236
:10243000016A9A401143016210BD10B501F00F030B
:102440000421046A99408C430462016A9A40114352
:10245000016210BD2DE9F047056A026A22F001020F
:10246000026243688269214C25F0020522400C6813
:1024700022F0030214438A681E4E2A431C4D1E4F4D
:10248000DFF878C0DFF87890DFF878A0A84209D0AC
:10249000B04207D0B84205D0604503D0484501D0CE
:1024A00050450AD1D0F8208028F00408C0F82080D8
:1024B00022F00808CA6842EA0802A84209D0B042DD
:1024C00007D0B84205D0604503D0484501D05045FB
:1024D00005D14D6923F440731D438B692B43436041
:1024E0008461496841630262BDE8F0878FFFFEFFA7
:1024F000002C0140003401400040014000440140F4
:102500000048014000500140F0B5056A026A22F01F
:1025100010020262426883691E4C204E23400C6800
:1025200023F4407343EA042425F020038D681C4FF4
:1025300043EA0513184DA84203D0B04201D0B84277
:102540000BD1D0F820C02CF0400CC0F820C0D1F83E
:102550000CC023F0800343EA0C13A8420CD0B04215
:102560000AD0104DA84207D00F4DA84204D00F4DFD
:10257000A84201D0B84207D14D6922F4406242EA34
:1025800085028D6942EA85024260846149688163FF
:102590000362F0BDFF8FFFFE002C014000340140BC
:1025A000005001400040014000440140004801400B
:1025B000F0B5056A026A22F4807202624268C36959
:1025C0001E4C204E23400C6823F003031C4325F4CB
:1025D00000738D681C4F43EA0523194DA84203D0B0
:1025E000B04201D0B8420BD1D0F820C02CF4806C9E
:1025F000C0F820C0D1F80CC023F4006343EA0C23D8
:10260000A8420CD0B0420AD0104DA84207D0104DBD
:10261000A84204D00F4DA84201D0B84207D14D695D
:1026200022F4405242EA05128D6942EA05124260E4
:10263000C4614968C1630362F0BD00008FFFFEFF03
:10264000002C014000340140005001400040014096
:102650000044014000480140F0B5056A026A22F4D6
:10266000805202624268C3691E4C204E23400C68AF
:1026700023F4407343EA042425F400538D681C4F6F
:1026800043EA0533184DA84203D0B04201D0B84206
:102690000BD1D0F820C02CF4804CC0F820C0D1F869
:1026A0000CC023F4004343EA0C33A8420CD0B042E0
:1026B0000AD0104DA84207D00F4DA84204D00F4DAC
:1026C000A84201D0B84207D14D6922F4404242EA03
:1026D00085128D6942EA85124260C46149680164CD
:1026E0000362F0BDFF8FFFFE002C0140003401406B
:1026F00000500140004001400044014000480140BA
:1027000030B5056A026A22F4803202624268036DC3
:10271000124C23400C681C4325F400330D8943EA16
:1027200005430F4DA8420ED00E4DA8420BD00E4DC2
:10273000A84208D00D4DA84205D00D4DA84202D0A8
:102740000C4DA84204D14D6922F4803242EA0522A0
:102750004260046549688164036230BD8FFFFEFFFB
:10276000002C014000340140004001400044014081
:10277000004801400050014030B5046A026A22F46A
:10278000801202624268036D134D24F400142B4042
:102790000D6843EA05230D8944EA05540F4DA8420C
:1027A0000ED00F4DA8420BD00E4DA84208D00E4DB2
:1027B000A84205D00D4DA84202D00D4DA84204D12B
:1027C0004D6922F4802242EA85224260036549680D
:1027D000C164046230BD0000FF8FFFFE002C014089
:1027E00000340140004001400044014000480140E5
:1027F0000050014030B5416EB9B1026891689268ED
:10280000C1F342610B4B520F9C5CE50003F10804DD
:10281000A25CB5FBF2F2A0F86A205A5C615CD200BF
:10282000B2FBF1F1A0F8681030BD0121A0F86A10E8
:10283000F8E700001839000890F82810090706D5B5
:1028400001684A68836B22F400421A434A6090F898
:102850002810C90706D001684A68C36A22F400320A
:102860001A434A6090F82810890706D501684A681B
:10287000036B22F480321A434A6090F8281049070B
:1028800006D501684A68436B22F480221A434A60E5
:1028900090F82810C90606D501688A68C36B22F42F
:1028A00080521A438A6090F82810890606D501687C
:1028B0008A68036C22F400521A438A6090F8281048
:1028C000490611D501684A68436C22F480121A4304
:1028D0004A60416CB1F5801F06D101684A68836C7B
:1028E00022F4C0021A434A6090F82810090606D55F
:1028F00001684A68C06C22F4002202434A607047B3
:102900002DE9F84300260446C0F89060FDF720FF4B
:102910008046206800684FF0200500076FF07E4772
:1029200013D54346002229042046009700F0B4F94D
:1029300058B1216851E8000F20F0800041E8000202
:10294000002AF6D1C4F8885021E0206800684007CA
:1029500022D5434600224FF480012046009700F024
:102960009BF9C8B1216851E8000F20F4907041E84C
:102970000002002AF6D12068083050E8001F21F03C
:10298000010140E80012002AF5D1C4F88C5084F807
:1029900084600320BDE8F883C4F88850C4F88C50E4
:1029A00044F86C6F666026760020F3E710B5026885
:1029B00052E8001F21F4907142E80013002BF6D179
:1029C0000E4B0268083252E8001F194042E800141A
:1029D000002CF6D1C16E012908D1016851E8002F01
:1029E00022F0100241E80023002BF6D12021C0F88C
:1029F0008C100021C166416710BD0000FEFFFFEF93
:102A00002DE9F0410446016880682269E3691043BA
:102A1000626900251A431043DFF84CC20A68934BE1
:102A20001A4002430A6020684168E26821F440517C
:102A3000114341602168A069614501D0226A1043B9
:102A40008A688B4B1A4002438A602068C16A626AB6
:102A500021F00F011143C1628649236886488B42E9
:102A60000DD1D0F8880010F0030006D0012867D0FF
:102A7000022854D0032851D164E001204FE07F495F
:102A80008B420BD1D0F8880010F00C0047D00428FE
:102A900045D0082852D00C2840D153E078498B42C9
:102AA0000BD1D0F8880010F0300038D0102847D073
:102AB000202843D0302831D144E072498B420BD1D9
:102AC000D0F8880010F0C00029D0402838D08028E5
:102AD00034D0C02822D135E06B498B420ED1D0F8DA
:102AE000880010F440701AD0B0F5807F28D0B0F57F
:102AF000007F23D0B0F5407F10D123E063450DD196
:102B0000D0F8880010F4406009D0B0F5806F17D07D
:102B1000B0F5006F12D0B0F5406F13D010205B4AB3
:102B20005B4F00264FF40041634539D160B1022864
:102B30000DD004280DD0082831D10EE00220EEE798
:102B40000420ECE70820EAE7FEF76EF903E01146FF
:102B500003E0FEF78DF901007BD0606A37F81020A2
:102B60006768B1FBF2F007EB4703834269D8B0EB2B
:102B7000073F66D8002308461946FDF79DFB09026A
:102B800041EA106102027808101871413A460023A8
:102B9000FDF792FB3F4AA0F54071914257D950E0B2
:102BA000E3694FF6EF788B422BD1092849D2DFE851
:102BB00000F005080D48254848480E00FEF734F996
:102BC00001E0FEF743F9010001D142E01146606ADD
:102BD00037F81000B1FBF0F04100606801EB5001E4
:102BE000B1FBF0F1A1F1100040452AD84FF6F07288
:102BF00001EA0200C1F34201084328E0FEF738F978
:102C0000E1E709281DD2DFE800F005080D1C1E1CB5
:102C10001C1C0E00FEF708F901E0FEF717F9010091
:102C200001D116E01146606A37F81000B1FBF0F1EF
:102C3000606801EB5001B1FBF0F0A0F110014145DB
:102C400004D9012505E0FEF713F9E8E780B2216811
:102C5000C8600120A4F86A0024F8680F2846E660DE
:102C60002661BDE8F081000000800040F369FFCFDD
:102C7000FFF4FF1100380140001002400044004002
:102C800000480040004C0040005000400024F40088
:102C900000390008FFFC0F002DE9F0479946174660
:102CA0000D4604464FF00008089E33E0701C31D0FA
:102CB000FDF74EFDA0EB0900B04218D8BEB1206868
:102CC0000168490726D5802D24D0402D22D0C16926
:102CD000C94309070DD4082505622046FFF766FEA3
:102CE000C4F8905084F884800120BDE8F087032068
:102CF000FBE7C069C04300050CD421684FF40060B5
:102D000008622046FFF752FE2020C4F8900084F8A5
:102D10008480ECE72068C06935EA000004D0002018
:102D2000B842C3D00020E0E70120F9E7FEE7000049
:102D30000C4910B501F1240024220446FDF733FBB1
:102D4000084A0020214602F8480F4FF0FF33507028
:102D5000802090707F20D070BDE81040282202486B
:102D6000FEF7EEBF40010020AC00002013481449DC
:102D700090ED040A81ED000A90ED050A81ED010A4B
:102D800090ED060A81ED020A90ED070A81ED030A33
:102D900090ED080A81ED040A90ED090A81ED050A1B
:102DA00090ED0A0A81ED060A90ED0B0A81ED070A03
:102DB00090ED0C0A81ED080AFFF7BABF8C010020E4
:102DC000400100204100080218BF04200A0E18BF6D
:102DD00040F001004FF07F4232EA010108BF40F0AD
:102DE0000200012808BF052070470907090E0028C6
:102DF00004DB00F1E02080F80014704700F00F00C1
:102E000000F1E02080F8141D7047000010EE101A49
:102E100008B5444A6846B2EB410F28D94FF0E64066
:102E2000B0EB410F94BF00204FF0FF3000900098AE
:102E3000002861DB60EE000A10F0010F45D010F0B1
:102E4000020FDFED391A9FED391A00EEE11ADFEDBE
:102E5000381A40EE811A21EEA01AF0EE400A40EE38
:102E6000010A08BFF1EE600AB0EE600A08BD314BFE
:102E700021F0004293423CD911F0004FDFED2E0AC1
:102E800020EE201ADFED2D0A19BF31EE601A71EE27
:102E9000200A31EE201A71EE600ABDEEE01A11EE42
:102EA000100A9FED271A00F0030000EEC10A9FED03
:102EB000251A009000EEC10A9FED231A00EEC10A08
:102EC0009FED221A00EEC10AB1E79FED211A9FED96
:102ED000210A10F0020F00EE810A9FED1F1A00EE8A
:102EE000801AB7EE000A00EE810A18BFB1EE400A60
:102EF00008BD00F00FF99AE710EE100A4000B0F19B
:102F00007F4F3CBFB7EE000A08BD07D14FF001006C
:102F1000FDF7AAFABDE8084000F0ECB8BDE80840AB
:102F200000F0E4B8B61F927E336D4C39DA82083C6B
:102F3000A0AA2ABE490E494683F9223F0000004B51
:102F40000000C93F00A0FD390020A2331A61342CD3
:102F5000B93AB2BACA9F2A3DDDFFFFBE00B510EEF6
:102F6000101A2DED028B81B0524A6846B2EB410F28
:102F70002ED94FF0E640B0EB410F94BF00204FF048
:102F8000FF3000900098B0EE408A00286ADB10F015
:102F9000010F4BD068EE080A9FED471A9FED470AD4
:102FA00000EE810A9FED461A10F0020F00EE801A23
:102FB000B7EE000A00EE810A02BF01B0BDEC028B41
:102FC00000BD00BF01B0B1EE400ABDEC028B00BDF8
:102FD0003C4B21F00042934241D911F0004FDFED0C
:102FE0003A0A20EE201ADFED390A19BF31EE601AD5
:102FF00071EE200A31EE201A71EE600ABDEEE01A81
:1030000011EE100A9FED321A00F0030000EEC10A23
:103010009FED301A009000EEC10A9FED2F1A00EECE
:10302000C10A9FED2E1A00EEC10AABE728EE080A8E
:103030009FED2B1ADFED2B0A10F0020F40EE410A34
:103040009FED291A00EE201A61EE000AB0EE480A40
:1030500008EE200AB6D101B0BDEC028B00BD00F035
:1030600059F88FE718EE100A4000B0F17F4F0DD2EB
:1030700018EE100AFFF7A6FE042808BF00F042F879
:10308000B0EE480A01B0BDEC028B00BD09D10120B1
:10309000FDF7EAF901B0BDEC028B5DF804EB00F03E
:1030A00029B801B0B0EE480ABDEC028B5DF804EB24
:1030B00000F01CB8B61F927EB93AB2BACA9F2A3D38
:1030C000DDFFFFBE490E494683F9223F0000004B59
:1030D0000000C93F00A0FD390020A2331A61342C42
:1030E000336D4C39DA82083CA0AA2ABE30EE000AC1
:1030F00070470000DFED020A80EEA00A7047000072
:10310000000000009FED020A20EE000A7047000058
:10311000000000102DE9F0014FF07F42B2EB410FAB
:103120009FBF4FF0FF310160BDE8F00170474FF0E5
:10313000004242EA0123C1F3C752783A551112F016
:103140001F0C434CCCF120067C44C1F3C752A2F1C2
:1031500078024FEA621204EB820254F8254008BF5D
:10316000D2E9015612D0556804FA0CF425FA06F794
:103170003C43976805FA0CF527FA06F8D26807FA77
:103180000CFCF24045EA08054CEA0206A4FB034C9D
:10319000A5FB0352A6FB03631D449D4234BF0126D9
:1031A00000261319334416B1934202D903E0934227
:1031B00001D2012200E00022624402F1200C9206BA
:1031C000DC0C42EA443200EE102A5B03DFED210AF8
:1031D000F8EEC01A00EE103A4FEA9C1C11F0004FB6
:1031E000B8EE400AC0F800C020EE201A00EE105AD7
:1031F000DFED190AB8EE400A20EE200A71EE810ACE
:1032000070EE800A10EE902A02F500626FF30B0256
:1032100000EE902A70EEE11A31EEC11ADFED101ABD
:1032200030EE411A9FED0D0A20EE800A01EE210AD0
:103230009FED0C1A00EE810A04BFBDE8F001704753
:10324000CCF180510160BDE8F001B1EE400A704759
:10325000F4070000000000360000802C22AAFD299F
:10326000DB0FC92F0000C92FFDF780FAFFF729F8FF
:10327000FEF7C2FDFEF78CFEFEF768FEFEF7FCFDD2
:103280000348FEF7EFFE00BFFFF770FDFCE700000C
:103290008C01002010B591EA030F48BF83F0004372
:1032A00000F1D681841A71EB030C05D2121943EB9D
:1032B0000C03001B61EB0C01DFF824E14FEA115411
:1032C000A4EB135C1EEA430F18BF9EEA445F73D061
:1032D00023EA0E03DCF1200E21EA045143F48013AB
:1032E00032D322FA0CFE10EB0E0023FA0CFE41EB57
:1032F0000E01CCF1200E03FA0EFE10EB0E0051F180
:103300000001B1F5801FCCF1200E32D201EB045147
:1033100012FA0EF2BDE8104058BF7047401C38BF8B
:103320005FEA420218BF7047002814BF20F0010076
:1033300041F100014FEA410313F5001F38BF704708
:10334000A1F1C04100F076B9012A43EB0302ACF1D0
:10335000200CDCF11F0E32BF4FF0000E23FA0CF3ED
:1033600010EB030041EB0451B4EB115FD0D0A1EBA3
:10337000045101F5801149085FEA300001EB045166
:103380000ED350F1000038BF12FA0EFE08D1BDE88E
:103390001040C9E7401C38BF5FEA4202CAD1C3E708
:1033A000BDE810404FEA410313F5001F38BF7047D6
:1033B000A1F1C04100F03EB99EEA445F08D011EA95
:1033C0005E0FBDE8104004BF01F0004100207047CF
:1033D000BDE8104070B500F0DFF800BF64FBBE3EF2
:1033E0000000E0FF4FEA41034FEA5353A3F5806327
:1033F000D3F11E03C8BFD3F1210C0CDD4FF0004206
:1034000042EAC12242EA505232FA03FC8CEAE17CE1
:10341000ACEBE1707047102BC4BF0020704703F580
:10342000787CBCF1FF3F04D06FF0004282EA2100BB
:10343000704770B500F0B0F84992248000207047C2
:10344000F2E70000DFF848C170B51CEA111E1EBF8C
:103450001CEA13159EEA0C0F95EA0C0F00F06F8022
:1034600081EA030423EA4C134EEAD47E21EA4C118C
:1034700041F4801143F48013AE44A1FB024CA0FB45
:103480000365AEF17F7E361955EB0C05A1FB034CAD
:103490004CF10003A0FB021C16EB0C06654153F136
:1034A0000003094218BF46F0010613F4007F0BD158
:1034B0004FEA03314FEA0530340341EA155140EA3F
:1034C00016506FF003020AE04FEAC3214FEAC5200D
:1034D000F40241EA555140EA56506FF0020202EB05
:1034E0002E4201EB025585EACE710AD05FEA440C08
:1034F00018BF24F0004450F1000041F1000120EA1F
:10350000D47040F2FE7C624500D270BDA84214BF68
:103510004FF080444FF04044002E08BF0024BEF11D
:10352000806FA8BFA1F1C041BDE8704080F28280E9
:103530004FF0000001F1C04101F0004170479EEAE8
:103540000C0F0CEA131518BF95EA0C0F06D04FF0BC
:10355000000081EA030E0EF0004170BD00F01CF87F
:103560008900013E00F007B800F009B84FEA430CAB
:103570005FEA5C5C08D081EA030100F05BB84FEAC7
:10358000410C5FEA5C5CF6D14FF0000001497047E6
:103590000000FF070000F87F0EF1020E2EF0030E70
:1035A0005EF8046B364205D4012A43EB030515F59A
:1035B000001F12D8012841EB010C1CF5001F0CD88C
:1035C0000ED14FEAD17C15F5001F0CEB4C0C0CF121
:1035D000020C08BF4CEBD37C04E04FF0080C01E078
:1035E0004FEAD37C0CEB4C0526FA05F606F00706ED
:1035F000B6F1040C06D20EEB860CBDE870404CF020
:10360000010C6047DFE80CF0090B02024FF00041AB
:103610004FF00000A1F5002170BD194610460128A9
:1036200051EB010418BFD4F5001484BF002001F051
:10363000004170BD0808A0F500114FEA3101704744
:1036400010B591EA030F48BF83F000433FF52AAE5F
:10365000841A71EB030C07D212198CF0004C43EB67
:103660000C03001B61EB0C01DFF8A4E14FEA1154DD
:10367000A4EB135C1EEA430F18BF9EEA445F00F000
:10368000B08023EA6E03524221EA0451C3EB6E0379
:1036900038BF5B1EDCF1200E25D322FA0CFE10EBA6
:1036A0000E0043FA0CFE41EB0E01CCF1200E03FAA2
:1036B0000EFE10EB0E0051F10001CCF1200E29D4CA
:1036C00012FA0EF201EB0451BDE8104058BF7047EA
:1036D000401C1CBFB2F1004F704700280CBF491CB2
:1036E00020F00100704712EB020E43EB030218BFFB
:1036F0004FF0010E4EEA4202ACF1200CDCF11E0E3E
:1037000054D943FA0CFE10EB0E0051F1FF31CCF10D
:103710001E0ED5D50EF1010E12FA0EFE404141EB00
:10372000010101EB445C5FEA5C5C10D910EBDE70D8
:1037300001EB045138BFBEF1004FBDE8104018BF87
:10374000704700280CBF491C20F00100704730D2A0
:103750004FEAD42C11F5001124F400641BD0B1FA07
:1037600081F20B3AA41AA41ED2F12003914030FA40
:1037700003F31943904001EBCC71002C01EB045191
:10378000BDE81040A8BF704701F1C0414FF00000F4
:1037900001F000417047B0FA80F310FA03F100D154
:1037A00010BDE41A173C4805C90AE4E701EB0451CF
:1037B00010BD491001EB0451BDE810404FEA300044
:1037C00002E04FF0000170474A0008BF0042F8D005
:1037D000B2F5001F28BF704701F000414FF0000014
:1037E00070479EEA445F07D011EA5E0FBDE81040C3
:1037F00004BF002100207047BDE8104070B5FFF7FE
:10380000CBFE00BF40DFF63E83F00041104670471C
:103810000000E0FF43004FEAD30C4FEA3C0C43406A
:103820001FBF40070CF1605113F0FE4F70471CF0B2
:10383000006F03D100200CF0004170470CF00043F2
:1038400043EA507010B540EACC0000F00EF800BF1B
:10385000000000924FEA0001FFF7ECBE4FF000417C
:103860004FF00000A1F5002170470EF1020E2EF07E
:10387000030E5EF8044B244204D44FEA4102B2F135
:103880007F4F11D84FEA4003B3F17F4F0CD80ED1D0
:103890004FEAD07CB2F17F4F0CEB4C0C0CF1020CD8
:1038A00008BF4CEBD17C04E04FF0080C01E04FEA7C
:1038B000D17C0CEB4C0324FA03F404F00704B4F1BC
:1038C000040C06D20EEB840CBDE810404CF0010C49
:1038D0006047DFE80CF0070802024FF00040A0F557
:1038E000800010BD0846420018BFD2F1807288BF28
:1038F00000F0004010BD4FF04070E1EE100A70473C
:10390000010002000400060008000A000C0010007C
:1039100020004000800000010101010307010000B8
:10392000080402040801010100000000000000007A
:103930000102030406070809000000000102030455
:10394000000000006E83F9A22915444ED15727FCD0
:10395000C0DD34F5999562DB4190433CAB6351FE89
:103960008039000800000020140000001402000844
:1039700094390008140000201C08000030020008E0
:103980001000000001000000000000000024F4000E
:043990000000000033
:04000005080001D915
:00000001FF
