:020000040800F2
:1000000030070020790200081B1600082F15000891
:1000100019160008D3040008D11B000800000000D6
:100020000000000000000000000000001F16000893
:10003000D5040008000000001D1600082116000865
:10004000930200089302000893020008930200083C
:10005000930200089302000893020008930200082C
:10006000930200089302000893020008930200081C
:10007000930200089302000893020008930200080C
:1000800093020008930200089302000893020008FC
:1000900093020008930200089302000893020008EC
:1000A00093020008930200089302000893020008DC
:1000B00093020008930200089302000893020008CC
:1000C00093020008930200089302000893020008BC
:1000D00093020008930200089302000893020008AC
:1000E000930200089302000893020008930200089C
:1000F000930200089302000893020008930200088C
:10010000930200089302000893020008930200087B
:10011000930200089302000893020008930200086B
:10012000930200089302000893020008930200085B
:10013000930200089302000893020008930200084B
:10014000930200089302000893020008930200083B
:10015000930200089302000893020008930200082B
:10016000930200089302000893020008930200081B
:10017000930200089302000893020008930200080B
:1001800093020008930200089302000893020008FB
:100190009302000800000000930200089302000888
:1001A00093020008930200089302000893020008DB
:1001B00093020008930200089302000893020008CB
:1001C00093020008930200089302000893020008BB
:1001D000930200089302000800F002F800F03CF8D7
:1001E0000AA090E8000C82448344AAF10107DA4592
:1001F00001D100F031F8AFF2090EBAE80F0013F0A8
:10020000010F18BFFB1A43F001031847B81A00008A
:10021000D81A0000103A24BF78C878C1FAD852071B
:1002200024BF30C830C144BF04680C607047000070
:100230000023002400250026103A28BF78C1FBD8EF
:10024000520728BF30C148BF0B6070471FB501F08F
:1002500014FD1FBD10B510BD00F001F91146FFF7E8
:10026000F5FF01F0FFFC00F01FF903B4FFF7F2FF08
:1002700003BC00F027F900000948804709480047FF
:10028000FEE7FEE7FEE7FEE7FEE7FEE7FEE7FEE746
:10029000FEE7FEE704480549054A064B70470000A3
:1002A00089160008D901000830010020300700201D
:1002B000300300203003002053EA020C00F0698074
:1002C0002DE9F04B4FF00006002B1FBFB3FA83F56A
:1002D00003FA05F424FA05F65E4012BF1643B2FA9B
:1002E00082F502FA05F4C5F120051EBF22FA05FCCD
:1002F00044EA0C04203556EA044C4FEA144418BF73
:10030000641C4FF000084FF00009904271EB030CA1
:1003100039D3002919BFB1FA81F701FA07F6B0FA0B
:1003200080F700FA07F6C7F120071EBF20FA07FC86
:1003300046EA0C062037B6FBF4FCA7EB0507103F96
:1003400007F01F0BCBF120060CFA0BFB2CFA06F67C
:1003500044BFB3460026202FA4BF5E464FF0000BDB
:100360005BEA060C08BF4FF0010B19EB0B09ABFB66
:10037000027C48EB0608C01B06FB02CC0BFB03CC3F
:1003800071EB0C01C1E70B46024641464846BDE809
:10039000F08B13B54FF000004FF00001AFF3008079
:1003A000BDE81C40704710B5203AC0F00B80B1E8A2
:1003B0001850203AA0E81850B1E81850A0E818509A
:1003C000BFF4F5AF5FEA027C24BFB1E81850A0E8A3
:1003D000185044BF18C918C0BDE810405FEA827CBD
:1003E00024BF51F8043B40F8043B08BF7047D207D4
:1003F00028BF31F8023B48BF11F8012B28BF20F875
:10040000023B48BF00F8012B70474FF0000200B5D7
:10041000134694469646203922BFA0E80C50A0E827
:100420000C50B1F12001BFF4F7AF090728BFA0E8D5
:100430000C5048BF0CC05DF804EB890028BF40F8A1
:10044000042B08BF704748BF20F8022B11F0804FE3
:1004500018BF00F8012B704770477047704775460A
:1004600000F02CF8AE4605006946534620F0070020
:10047000854618B020B5FFF70DFFBDE820404FF0CE
:1004800000064FF000074FF000084FF0000B21F07E
:100490000701AC46ACE8C009ACE8C009ACE8C0094B
:1004A000ACE8C0098D46704710B50446AFF3008034
:1004B0002046BDE81040FFF7D8BE00000048704756
:1004C000D000002001491820ABBEFEE72600020044
:1004D0007047FEE7704772B6FEE700002DE9F04F67
:1004E000DFF80C92002301260325A9F1040B85B047
:1004F0000F2709F1040AABF1040EF1E006FA03FC40
:1005000012EA0C027ED00C7904F00304012C01D015
:10051000022C20D1846800945C0005FA04F804944D
:10052000009C24EA08040094D1F80C80049C08FA8A
:1005300004F8009C48EA0408C0F80880446824EAEB
:100540000C0491F804C0CCF3001C0CFA03FC4CEA38
:10055000040CC0F804C00C79E443A40702D18C68F1
:10056000012C0ED0C4684FEA430805FA08FC24EABF
:100570000C04D1F808C00CFA08FC4CEA040CC0F8D2
:100580000CC00C7904F00304022C16D1DC0800EB3B
:10059000840CCDF808C0DCF820C05C074FEAD468B2
:1005A00007FA08F42CEA040C0C6904FA08F444EA8B
:1005B0000C04DDF808C0CCF8204004684FEA43087A
:1005C00005FA08FC24EA0C0491F804C00CF0030CB2
:1005D0000CFA08FC4CEA040CC0F800C04C6814F497
:1005E000403F7CD0434CD4F860C04CF0010CC4F8C0
:1005F00060C0246E23F0030C04F0010400943E4C10
:10060000644400E06BE00294A4684FEA837C4FEA04
:100610001C7807FA08FC24EA0C04B0F1904F06D0CD
:10062000DFF8D8C0604505D14FF0010C20E04FF055
:10063000000C1DE0DFF8C8C0604502D14FF0020C8D
:1006400016E0DFF8C0C0604502D14FF0030C0FE0A8
:10065000DFF8B4C0604502D14FF0040C08E0DFF8C9
:10066000ACC0604502D14FF0050C01E04FF0060C24
:100670000CFA08FC4CEA040C029CC4F808C0D9F837
:100680000040CC46D1F8048094435FEAC82800D5E6
:100690001443CCF80040DAF80040D446D1F8048086
:1006A00094435FEA882800D51443CCF80040DBF877
:1006B0000040DC46D1F8048094435FEA883800D5D6
:1006C0001443CCF80040DEF80040F446D1F8048032
:1006D00094435FEAC83800D51443CCF800405B1C53
:1006E0000C682246DC407FF409AF05B0BDE8F08F0E
:1006F00008040140001002400000014000040048CE
:1007000000080048000C0048001000480014004891
:100710000AB18161704781627047000001488068BA
:1007200070470000000000200248816842681144C0
:10073000816070470000002010B50024032000F005
:1007400065F80F2000F008F808B1012401E000F07E
:1007500025F8204610BD000070B50E4E0546002459
:10076000706898B14FF47A71B1FBF0F00A490968EA
:10077000B1FBF0F000F08CFD40B9102D06D2002244
:100780002946501E00F022F8356000E00124204682
:1007900070BD0000000000200C0000200A4882B05C
:1007A000016E41F001010166016E01F0010100914D
:1007B000816D41F080518165806D00F08050009026
:1007C00002B000F093B8000000100240F0B40E4BED
:1007D0001B680C46C3F30223C3F10705042D00D99F
:1007E0000425191D072901D2002300E0DB1E012684
:1007F00006FA05F1491E214099409E40761E16409A
:100800003143F0BC01F01EBA0CED00E0064900F0E7
:10081000070208684FF6FF03184040EA0220034A27
:1008200010430860704700000CED00E00000FA057E
:100830002B492C4B0A6832214A432B4940B1B0F571
:10084000007F086829D020F4C06040F480602CE06C
:100850000868C0F34120022804D051F8800F20F42A
:10086000807022E0D1F8800020F48070C1F8800010
:10087000086820F4C06040F400700860B2FBF3F038
:10088000401C00E0401E4A69520501D50028F9D1FC
:10089000486940050AD503207047C0F3412002286B
:1008A00006D051F8800F40F4807008600020704737
:1008B000D1F8800040F48070C1F88000086820F40E
:1008C000C06040F400700860B2FBF3F0401C00E030
:1008D000401E4A695205DBD50028F9D1D8E700004F
:1008E0000C00002040420F00007000400248816868
:1008F00041F4804181607047007000402DE9F84369
:10090000044600680026BB4D00035ED5A86D002795
:10091000C00008D4A86D40F08050A865A86D0127DC
:1009200000F080500090DFF8D092D9F8001041F428
:100930008071C9F80010FFF7F1FE804606E000BFA5
:10094000FFF7ECFEA0EB080002282BD8D9F8000036
:10095000C005F5D5D5F8900010F4407014D0216D85
:10096000814211D0D5F89000D5F8901020F4407055
:1009700041F48031C5F89010D5F8901021F4803101
:10098000C5F89010C5F89000C00711D0FFF7C6FE5B
:10099000804641F2883907E0FFF7C0FEA0EB08016E
:1009A000494501D903260BE0D5F890008007F3D51F
:1009B000D5F89000216D20F440700843C5F89000F0
:1009C0001FB1A86D20F08050A8652078C00707D01F
:1009D000D5F88800616820F003000843C5F8880056
:1009E0002078800707D5D5F88800A16820F00C0092
:1009F0000843C5F888002078400707D5D5F8880057
:100A0000E16820F030000843C5F88800207800072E
:100A100007D5D5F88800216920F0C0000843C5F843
:100A200088002078C00607D5D5F88800616920F4D1
:100A300040700843C5F888002078800607D5D5F8AF
:100A40008800A16920F440600843C5F88800207838
:100A5000400607D5D5F88800E16920F440500843E6
:100A6000C5F888002078000607D5D5F88800216AE7
:100A700020F440400843C5F888002088C00507D509
:100A8000D5F88800616A20F440300843C5F8880032
:100A90002068800307D5D5F89C00A16A20F00300E8
:100AA0000843C5F89C002088800507D5D5F8880044
:100AB000E16A20F440200843C5F8880020884005FA
:100AC0000FD5D5F88800216B20F440100843C5F8F5
:100AD0008800206BB0F5801F03D1E86840F48010D7
:100AE000E860208800050FD5D5F88800616B20F4F8
:100AF00040000843C5F88800606BB0F5800F03D153
:100B0000E86840F48010E8602088C0040FD5D5F86C
:100B10008800A16B20F040700843C5F88800A06BE6
:100B2000B0F1807F03D1E86840F48010E86020884D
:100B30004FF0006180040ED5D5F88800E26B20F0FC
:100B400040601043C5F88800E06B884203D1E86834
:100B500040F48010E860208840040ED5D5F8880065
:100B6000226C20F040601043C5F88800206C884259
:100B700003D1E86840F48010E860208800040FD5B5
:100B8000D5F88800616C20F040500843C5F8880013
:100B9000606CB0F1805F03D1E86840F48030E860B9
:100BA0002068C0030FD5D5F88800A16C20F0404024
:100BB0000843C5F88800A06CB0F1804F03D1E86805
:100BC00040F48030E860206840030FD5D5F89C00E1
:100BD000E16C20F440100843C5F89C00E06CB0F5CF
:100BE000001F03D1E86840F48010E8603046BDE89B
:100BF000F883000000100240007000402DE9F0472B
:100C00000E4605004FF0000725D0DFF8AC81D8F87C
:100C1000000000F00F00B0420CD2D8F8001021F014
:100C20000F013143C8F80010D8F8000000F00F00A1
:100C3000B04210D12968614CC80741F2883A5AD0B5
:100C40006868DFF87C91032808D0022820682DD03E
:100C5000400500282CDB0120BDE8F08720688001DA
:100C6000F9D5E06800F00302E068C0F30310401C0F
:100C7000032A19D0534A00BFB2FBF0F0E268C2F376
:100C800006225043E268C2F34162521C5200B0FB9C
:100C9000F2F0484517D9A06810F0F00F0CD0880783
:100CA00011D5A86840B10EE0474AE5E78003D0E7D8
:100CB00000F0B6F8484506D9A06820F0F00040F0F2
:100CC0008000A0608027A068696820F003000843C6
:100CD000A060FFF723FD814606E000BFFFF71EFD81
:100CE000A0EB090151453AD8A068696800F00C00F2
:100CF000B0EB810FF2D12868810714D5400703D5E6
:100D0000A06840F4E060A0602878000705D5A068DE
:100D100020F4605040F4E060A060A068A96820F072
:100D2000F000084304E0802F03D1A06820F0F00019
:100D3000A060D8F80010404601F00F01B14216D96A
:100D4000016821F00F0131430160FFF7E7FC07461E
:100D500007E000BFFFF7E2FCC11B514501D90320AA
:100D60007AE7D8F8000000F00F00B042F2D12878FE
:100D7000400705D5A068E96820F4E0600843A0605A
:100D80002878000706D5A068296920F4605040EA59
:100D9000C100A06000F044F8A1680C4AC1F303113F
:100DA000515C01F01F01C84009490860094800680A
:100DB000BDE8F047FFF7D0BC002002400010024021
:100DC00000B4C4040024F40000127A00AC1C000833
:100DD0000C000020000000200548064900688968D2
:100DE000054AC1F30221515C01F01F01C840704760
:100DF0000C00002000100240BC1C000805480649F9
:100E000000688968054AC1F3C221515C01F01F01E5
:100E1000C84070470C00002000100240BC1C0008B5
:100E2000184910B58868C0F381021748012A0BD011
:100E30008A684310C2F38102022A06D08A68C2F38C
:100E40008102032A03D0002010BD184610BDCA68D5
:100E500002F00304CA68C2F30312521C032C02D02E
:100E6000B0FBF2F001E0B3FBF2F0CA68C968C2F36C
:100E700006225043C1F34161491C4900B0FBF1F027
:100E800010BD0000001002400024F4002DE9F843DA
:100E900004007AD02078F84DC00747D0A868E968E8
:100EA00000F00C0001F003010C2802D0082817D034
:100EB00001E0032914D06068B0F5803F17D0B0F589
:100EC000A02F286817D020F480302860286820F4EC
:100ED000802028606068E0B1FFF720FC064614E03F
:100EE0002868800322D560680028D2D01EE02868D8
:100EF00040F48030EDE740F480202860F7E700BF41
:100F0000FFF70CFC801B642870D828688003F7D595
:100F10000CE0FFF703FC064605E000BFFFF7FEFB11
:100F2000801B6428F0D828688003F7D420788007D5
:100F30004CD5A868E96800F00C0001F003010C280A
:100F400002D004280DD001E002290AD0E068002870
:100F500028682BD040F480702860FFF7DFFB06463E
:100F600019E02868400502D5E068002891D068683B
:100F7000217C20F0FE4040EA01606860BF480068C4
:100F8000FFF7EAFB002800D120E072E1FFF7C6FB83
:100F9000801B0228B8D828684005F7D56868217CEE
:100FA00020F0FE4040EA016068600FE020F48070AD
:100FB0002860FFF7B3FB064605E000BFFFF7AEFB76
:100FC000801B0228A0D828684005F7D420780007A5
:100FD00029D560690028D5F8940013D040F00100AD
:100FE000C5F89400FFF79AFB064606E090E000BFC4
:100FF000FFF794FB801B022886D8D5F89400800761
:10100000F6D510E020F00100C5F89400FFF786FB4C
:10101000064604E0FFF782FB801B022878D8D5F84B
:1010200094008007F6D42078400761D5A86D00268B
:10103000C00008D4A86D40F08050A865A86D0126B6
:1010400000F0805000908E480168C90511D40168F5
:10105000804641F480710160FFF760FB074604E0C1
:10106000FFF75CFBC01B022852D8D8F80000C0056F
:10107000F6D5A068012815D00528D5F8900016D01F
:1010800020F00100C5F89000D5F8900020F0040091
:10109000C5F89000A06841F28838B8B1FFF73EFB70
:1010A00007460EE0D5F8900040F00100F0E740F070
:1010B0000400C5F89000F5E7FFF730FBC11B414580
:1010C00026D8D5F890008007F6D50CE0FFF726FB70
:1010D000074604E0FFF722FBC11B414518D8D5F8AD
:1010E00090008007F6D41EB1A86D20F08050A8654E
:1010F0002078800629D5A0690028D5F8980013D05B
:1011000040F00100C5F89800FFF708FB064606E02E
:1011100075E000BFFFF702FB801B02286FD8D5F8EF
:1011200098008007F6D510E020F00100C5F898007F
:10113000FFF7F4FA064604E0FFF7F0FA801B0228F6
:101140005DD8D5F898008007F6D4E069F0B3A968B7
:10115000C1F3810103295DD00228286820F0807046
:10116000286003D0FFF7DAFA04464BE0FFF7D6FA1F
:10117000064604E0FFF7D2FA801B02283FD8286811
:101180008001F7D4F4E908016FF00F0202EB0111BE
:101190000843218A5204490802EB4151A26841EAFE
:1011A00002210843217D4FF07E42490802EB416154
:1011B0000843217B40EAC160E968324A1140084394
:1011C000E860286840F08070286000E05EE0E86831
:1011D00040F08070E860FFF7A1FA044605E000BF28
:1011E000FFF79CFA001B022809D828688001F7D570
:1011F0004CE000BFFFF792FA001B022802D903203F
:10120000BDE8F88328688001F4D4E8681E490840E6
:10121000E8603BE00128F3D0E868226A00F00301AF
:10122000914226D1616A00F0F00209011039914221
:101230001FD1A26A00F4FE41B1EB022F19D194F83C
:101240002C2000F07841B1EBC26F12D1218E00F456
:10125000C00249084905A1F50011914209D194F84D
:10126000341000F0C06049084906A1F100718142C4
:101270000CD00120C4E70000001002400000002054
:10128000007000400C809F01FCFFEEFE0020B7E7DD
:1012900010B5401EB0F1807F01D3012010BD4FF08A
:1012A000E02460610F21601700F0CCFC0020A061F9
:1012B00007202061002010BD90F88410012918D06B
:1012C000012180F884102421C0F8881001680A6880
:1012D0000B6823F001030B6022F0005100224266EC
:1012E000036819602021C0F8881080F88420104617
:1012F00070470220704770B5044690F884000128BA
:101300001DD0012084F884002420C4F888002068BF
:101310000568026822F0010202602068826822F0FB
:1013200060620A438260204600F0B6F920680560DA
:101330002020C4F88800002084F8840070BD0220BA
:1013400070BD70B5044690F8840001281DD00120BE
:1013500084F884002420C4F88800206805680268A6
:1013600022F0010202602068826822F060420A4393
:101370008260204600F090F9206805602020C4F8C3
:101380008800002084F8840070BD022070BD10B574
:10139000040003D0D4F8880010B107E0012010BD8C
:1013A000002084F88400204600F026F82420C4F8A9
:1013B00088002068016821F001010160A06A10B175
:1013C000204600F08BF9204600F06CFA0128E6D0A8
:1013D0002068416821F4904141602068816821F0D3
:1013E0002A0181602068016841F001010160204606
:1013F000BDE8104000F0D6B910B59CB004461421E9
:1014000015A8FFF702F854216846FEF7FEFF1749BA
:101410002068884227D10420002400900394684665
:10142000FFF76CFA08B1FFF756F81148816D41F4E7
:1014300080218165816D01F480211A91C16C41F098
:101440000201C164C06C15A900F002001A904FF4AB
:10145000406015900220CDE916040720CDE9184020
:101460000448FFF73BF81CB010BD000000480040E6
:1014700000100240000400482DE9F84F0446D0F85F
:101480008800984615460E46202802D00220BDE866
:10149000F88F96B38DB30020C4F890004FF0210967
:1014A000C4F888901834FFF739F9A5878246E58794
:1014B00054F8100C183CB0F5805F01D1206910B1D0
:1014C0003546002600E000255FF02007B4F85600FE
:1014D00053464FF00002CDF80080D8B1802120465D
:1014E00000F02CFBD8B955B115F8010B21688862C2
:1014F000D4F8881039EA010006D00120C7E736F891
:10150000020BC0F30800F1E7B4F85600401EA4F83F
:101510005600DBE74021204600F010FB18B1C4F86C
:1015200088700320B3E7C4F888700020AFE7FEE7B7
:1015300030B587B014216846FEF767FF1A48C16CC2
:1015400041F00401C164C16C01F004010591C16C5A
:1015500041F02001C164C16C01F020010591C16C12
:1015600041F00201C164C16C01F002010591C16C3E
:1015700041F00101C164C06C0C4D00F001004FF45A
:1015800000540590002221462846FFF7C1F80120AB
:1015900000210094CDE90101039169462846FEF738
:1015A0009DFF07B030BD0000001002400008004859
:1015B000184810B5164901604FF4E131416000212F
:1015C00081600C22C160C0E904128161C1610162C5
:1015D00041628162FFF7DBFE08B1FEF77CFF00216C
:1015E0000C48FFF7AEFE08B1FEF775FF0021094871
:1015F000FFF781FE08B1FEF76EFF0648FFF75CFEBD
:10160000002803D0BDE81040FEF765BF10BD000004
:101610000048004010000020FEE7FEE770477047DA
:10162000FFF782B810B594B038216846FEF7EDFE9A
:1016300014210EA8FEF7E9FE0020FFF7F9F80120BB
:1016400000900004019002200324CDE907045521F5
:10165000CDE909010B900C900D906846FFF716FC40
:1016600008B172B6FEE70F20CDE90E0400201090FD
:101670001190129004210EA8FFF7C0FA002801D0A3
:1016800072B6FEE714B010BD0248016841F4700163
:101690000160704788ED00E030B5416EB9B1026875
:1016A00091689268C1F342610B4B520F9C5CE5005C
:1016B00003F10804A25CB5FBF2F2A0F86A205A5CC0
:1016C000615CD200B2FBF1F1A0F8681030BD0121DD
:1016D000A0F86A10F8E700009C1C000890F8281099
:1016E000090706D501684A68836B22F400421A4351
:1016F0004A6090F82810C90706D001684A68C36A92
:1017000022F400321A434A6090F82810890706D55F
:1017100001684A68036B22F480321A434A6090F8E9
:101720002810490706D501684A68436B22F48022D5
:101730001A434A6090F82810C90606D501688A68DD
:10174000C36B22F480521A438A6090F828108906ED
:1017500006D501688A68036C22F400521A438A6035
:1017600090F82810490611D501684A68436C22F4A4
:1017700080121A434A60416CB1F5801F06D101689E
:101780004A68836C22F4C0021A434A6090F8281019
:10179000090606D501684A68C06C22F4002202439B
:1017A0004A6070472DE9F84300260446C0F890606F
:1017B000FEF7B4FF8046206800684FF02005000760
:1017C0006FF07E4713D54346002229042046009738
:1017D00000F0B4F958B1216851E8000F20F0800002
:1017E00041E80002002AF6D1C4F8885021E02068C0
:1017F0000068400722D5434600224FF4800120466E
:10180000009700F09BF9C8B1216851E8000F20F45F
:10181000907041E80002002AF6D12068083050E8B4
:10182000001F21F0010140E80012002AF5D1C4F8A0
:101830008C5084F884600320BDE8F883C4F8885095
:10184000C4F88C5044F86C6F666026760020F3E78D
:1018500010B5026852E8001F21F4907142E80013AD
:10186000002BF6D10E4B0268083252E8001F1940D7
:1018700042E80014002CF6D1C16E012908D101689C
:1018800051E8002F22F0100241E80023002BF6D18E
:101890002021C0F88C100021C166416710BD0000F6
:1018A000FEFFFFEF2DE9F0410446016880682269E0
:1018B000E3691043626900251A431043DFF84CC204
:1018C0000A68934B1A4002430A6020684168E26844
:1018D00021F44051114341602168A069614501D064
:1018E000226A10438A688B4B1A4002438A60206840
:1018F000C16A626A21F00F011143C16286492368FF
:1019000086488B420DD1D0F8880010F0030006D035
:10191000012867D0022854D0032851D164E0012067
:101920004FE07F498B420BD1D0F8880010F00C00BB
:1019300047D0042845D0082852D00C2840D153E085
:1019400078498B420BD1D0F8880010F0300038D0A5
:10195000102847D0202843D0302831D144E07249A4
:101960008B420BD1D0F8880010F0C00029D040285D
:1019700038D0802834D0C02822D135E06B498B4242
:101980000ED1D0F8880010F440701AD0B0F5807FE6
:1019900028D0B0F5007F23D0B0F5407F10D123E0F0
:1019A00063450DD1D0F8880010F4406009D0B0F53F
:1019B000806F17D0B0F5006F12D0B0F5406F13D024
:1019C00010205B4A5B4F00264FF40041634539D13C
:1019D00060B102280DD004280DD0082831D10EE0C6
:1019E0000220EEE70420ECE70820EAE7FFF7F4F92D
:1019F00003E0114603E0FFF713FA01007BD0606AB1
:101A000037F810206768B1FBF2F007EB4703834219
:101A100069D8B0EB073F66D8002308461946FEF7A1
:101A20004BFC090241EA106102027808101871416A
:101A30003A460023FEF740FC3F4AA0F54071914230
:101A400057D950E0E3694FF6EF788B422BD1092844
:101A500049D2DFE800F005080D48254848480E0047
:101A6000FFF7BAF901E0FFF7C9F9010001D142E03F
:101A70001146606A37F81000B1FBF0F04100606871
:101A800001EB5001B1FBF0F1A1F1100040452AD863
:101A90004FF6F07201EA0200C1F34201084328E068
:101AA000FFF7BEF9E1E709281DD2DFE800F00508DD
:101AB0000D1C1E1C1C1C0E00FFF78EF901E0FFF729
:101AC0009DF9010001D116E01146606A37F8100057
:101AD000B1FBF0F1606801EB5001B1FBF0F0A0F157
:101AE0001001414504D9012505E0FFF799F9E8E720
:101AF00080B22168C8600120A4F86A0024F8680F49
:101B00002846E6602661BDE8F081000000800040C4
:101B1000F369FFCFFFF4FF110038014000100240CD
:101B20000044004000480040004C0040005000408D
:101B30000024F400841C0008FFFC0F002DE9F0478E
:101B4000994617460D4604464FF00008089E33E0BC
:101B5000701C31D0FEF7E2FDA0EB0900B04218D8AE
:101B6000BEB120680168490726D5802D24D0402DBC
:101B700022D0C169C94309070DD408250562204652
:101B8000FFF766FEC4F8905084F884800120BDE819
:101B9000F0870320FBE7C069C04300050CD421682F
:101BA0004FF4006008622046FFF752FE2020C4F880
:101BB000900084F88480ECE72068C06935EA000072
:101BC00004D00020B842C3D00020E0E70120F9E7AC
:101BD000FEE700000C4910B501F114001422044680
:101BE000FEF7E1FB084A0020214602F8280F4FF0DB
:101BF000FF335070802090707F20D070BDE810407F
:101C000018220248FFF738BCA40000201000002072
:101C10000B48B7EE000A80ED000AB0EE000A80ED36
:101C2000010AB0EE080A80ED020AB1EE000A80ED6A
:101C3000030AB1EE040A80ED040AFFF7CBBF0000EF
:101C4000A40000200907090E002804DB00F1E020B1
:101C500080F80014704700F00F0000F1E02080F8D9
:101C6000141D7047FEF768FDFFF7DCFCFFF760FC12
:101C7000FFF79EFCFFF7CCFFFCE74FF04070E1EE72
:101C8000100A7047010002000400060008000A0064
:101C90000C00100020004000800000010101010341
:101CA000070100000804020408010101000000000F
:101CB00000000000010203040607080900000000FC
:101CC00001020304E41C00080000002010000000D2
:101CD00014020008F41C0008100000202007000077
:101CE00030020008100000000100000000000000A9
:041CF0000024F400D8
:04000005080001D915
:00000001FF
